{
  "_format": "hh-sol-artifact-1",
  "contractName": "CryptoDevsNFT",
  "sourceName": "contracts/CryptoDevsNFT.sol",
  "abi": [
    {
      "inputs": [
        {
          "internalType": "uint256",
          "name": "maxNfts",
          "type": "uint256"
        }
      ],
      "stateMutability": "nonpayable",
      "type": "constructor"
    },
    {
      "anonymous": false,
      "inputs": [
        {
          "indexed": true,
          "internalType": "address",
          "name": "account",
          "type": "address"
        },
        {
          "indexed": true,
          "internalType": "address",
          "name": "operator",
          "type": "address"
        },
        {
          "indexed": false,
          "internalType": "bool",
          "name": "approved",
          "type": "bool"
        }
      ],
      "name": "ApprovalForAll",
      "type": "event"
    },
    {
      "anonymous": false,
      "inputs": [
        {
          "indexed": true,
          "internalType": "address",
          "name": "previousOwner",
          "type": "address"
        },
        {
          "indexed": true,
          "internalType": "address",
          "name": "newOwner",
          "type": "address"
        }
      ],
      "name": "OwnershipTransferred",
      "type": "event"
    },
    {
      "anonymous": false,
      "inputs": [
        {
          "indexed": true,
          "internalType": "address",
          "name": "operator",
          "type": "address"
        },
        {
          "indexed": true,
          "internalType": "address",
          "name": "from",
          "type": "address"
        },
        {
          "indexed": true,
          "internalType": "address",
          "name": "to",
          "type": "address"
        },
        {
          "indexed": false,
          "internalType": "uint256[]",
          "name": "ids",
          "type": "uint256[]"
        },
        {
          "indexed": false,
          "internalType": "uint256[]",
          "name": "values",
          "type": "uint256[]"
        }
      ],
      "name": "TransferBatch",
      "type": "event"
    },
    {
      "anonymous": false,
      "inputs": [
        {
          "indexed": true,
          "internalType": "address",
          "name": "operator",
          "type": "address"
        },
        {
          "indexed": true,
          "internalType": "address",
          "name": "from",
          "type": "address"
        },
        {
          "indexed": true,
          "internalType": "address",
          "name": "to",
          "type": "address"
        },
        {
          "indexed": false,
          "internalType": "uint256",
          "name": "id",
          "type": "uint256"
        },
        {
          "indexed": false,
          "internalType": "uint256",
          "name": "value",
          "type": "uint256"
        }
      ],
      "name": "TransferSingle",
      "type": "event"
    },
    {
      "anonymous": false,
      "inputs": [
        {
          "indexed": false,
          "internalType": "string",
          "name": "value",
          "type": "string"
        },
        {
          "indexed": true,
          "internalType": "uint256",
          "name": "id",
          "type": "uint256"
        }
      ],
      "name": "URI",
      "type": "event"
    },
    {
      "inputs": [],
      "name": "MAX_NFTS",
      "outputs": [
        {
          "internalType": "uint256",
          "name": "",
          "type": "uint256"
        }
      ],
      "stateMutability": "view",
      "type": "function"
    },
    {
      "inputs": [
        {
          "internalType": "address",
          "name": "account",
          "type": "address"
        },
        {
          "internalType": "uint256",
          "name": "id",
          "type": "uint256"
        }
      ],
      "name": "balanceOf",
      "outputs": [
        {
          "internalType": "uint256",
          "name": "",
          "type": "uint256"
        }
      ],
      "stateMutability": "view",
      "type": "function"
    },
    {
      "inputs": [
        {
          "internalType": "address[]",
          "name": "accounts",
          "type": "address[]"
        },
        {
          "internalType": "uint256[]",
          "name": "ids",
          "type": "uint256[]"
        }
      ],
      "name": "balanceOfBatch",
      "outputs": [
        {
          "internalType": "uint256[]",
          "name": "",
          "type": "uint256[]"
        }
      ],
      "stateMutability": "view",
      "type": "function"
    },
    {
      "inputs": [],
      "name": "freeMint",
      "outputs": [],
      "stateMutability": "nonpayable",
      "type": "function"
    },
    {
      "inputs": [],
      "name": "getTokenId",
      "outputs": [
        {
          "internalType": "uint256",
          "name": "",
          "type": "uint256"
        }
      ],
      "stateMutability": "view",
      "type": "function"
    },
    {
      "inputs": [
        {
          "internalType": "address",
          "name": "account",
          "type": "address"
        },
        {
          "internalType": "address",
          "name": "operator",
          "type": "address"
        }
      ],
      "name": "isApprovedForAll",
      "outputs": [
        {
          "internalType": "bool",
          "name": "",
          "type": "bool"
        }
      ],
      "stateMutability": "view",
      "type": "function"
    },
    {
      "inputs": [],
      "name": "owner",
      "outputs": [
        {
          "internalType": "address",
          "name": "",
          "type": "address"
        }
      ],
      "stateMutability": "view",
      "type": "function"
    },
    {
      "inputs": [],
      "name": "renounceOwnership",
      "outputs": [],
      "stateMutability": "nonpayable",
      "type": "function"
    },
    {
      "inputs": [
        {
          "internalType": "address",
          "name": "from",
          "type": "address"
        },
        {
          "internalType": "address",
          "name": "to",
          "type": "address"
        },
        {
          "internalType": "uint256[]",
          "name": "ids",
          "type": "uint256[]"
        },
        {
          "internalType": "uint256[]",
          "name": "amounts",
          "type": "uint256[]"
        },
        {
          "internalType": "bytes",
          "name": "data",
          "type": "bytes"
        }
      ],
      "name": "safeBatchTransferFrom",
      "outputs": [],
      "stateMutability": "nonpayable",
      "type": "function"
    },
    {
      "inputs": [
        {
          "internalType": "address",
          "name": "from",
          "type": "address"
        },
        {
          "internalType": "address",
          "name": "to",
          "type": "address"
        },
        {
          "internalType": "uint256",
          "name": "id",
          "type": "uint256"
        },
        {
          "internalType": "uint256",
          "name": "amount",
          "type": "uint256"
        },
        {
          "internalType": "bytes",
          "name": "data",
          "type": "bytes"
        }
      ],
      "name": "safeTransferFrom",
      "outputs": [],
      "stateMutability": "nonpayable",
      "type": "function"
    },
    {
      "inputs": [
        {
          "internalType": "address",
          "name": "operator",
          "type": "address"
        },
        {
          "internalType": "bool",
          "name": "approved",
          "type": "bool"
        }
      ],
      "name": "setApprovalForAll",
      "outputs": [],
      "stateMutability": "nonpayable",
      "type": "function"
    },
    {
      "inputs": [
        {
          "internalType": "bytes4",
          "name": "interfaceId",
          "type": "bytes4"
        }
      ],
      "name": "supportsInterface",
      "outputs": [
        {
          "internalType": "bool",
          "name": "",
          "type": "bool"
        }
      ],
      "stateMutability": "view",
      "type": "function"
    },
    {
      "inputs": [
        {
          "internalType": "address",
          "name": "newOwner",
          "type": "address"
        }
      ],
      "name": "transferOwnership",
      "outputs": [],
      "stateMutability": "nonpayable",
      "type": "function"
    },
    {
      "inputs": [
        {
          "internalType": "uint256",
          "name": "",
          "type": "uint256"
        }
      ],
      "name": "uri",
      "outputs": [
        {
          "internalType": "string",
          "name": "",
          "type": "string"
        }
      ],
      "stateMutability": "view",
      "type": "function"
    }
  ],
  "bytecode": "0x60a06040523480156200001157600080fd5b50604051620031853803806200318583398181016040528101906200003791906200025f565b6040518060400160405280600b81526020017f70756e6b64616f2e636f6d0000000000000000000000000000000000000000008152506200007e81620000ae60201b60201c565b506200009f62000093620000ca60201b60201c565b620000d260201b60201c565b80608081815250505062000314565b8060029080519060200190620000c692919062000198565b5050565b600033905090565b6000600360009054906101000a900473ffffffffffffffffffffffffffffffffffffffff16905081600360006101000a81548173ffffffffffffffffffffffffffffffffffffffff021916908373ffffffffffffffffffffffffffffffffffffffff1602179055508173ffffffffffffffffffffffffffffffffffffffff168173ffffffffffffffffffffffffffffffffffffffff167f8be0079c531659141344cd1fd0a4f28419497f9722a3daafe3b4186f6b6457e060405160405180910390a35050565b828054620001a69062000295565b90600052602060002090601f016020900481019282620001ca576000855562000216565b82601f10620001e557805160ff191683800117855562000216565b8280016001018555821562000216579182015b8281111562000215578251825591602001919060010190620001f8565b5b50905062000225919062000229565b5090565b5b80821115620002445760008160009055506001016200022a565b5090565b6000815190506200025981620002fa565b92915050565b6000602082840312156200027257600080fd5b6000620002828482850162000248565b91505092915050565b6000819050919050565b60006002820490506001821680620002ae57607f821691505b60208210811415620002c557620002c4620002cb565b5b50919050565b7f4e487b7100000000000000000000000000000000000000000000000000000000600052602260045260246000fd5b62000305816200028b565b81146200031157600080fd5b50565b608051612e4e6200033760003960008181610473015261077d0152612e4e6000f3fe608060405234801561001057600080fd5b50600436106100e95760003560e01c80635b70ea9f1161008c578063a22cb46511610066578063a22cb46514610238578063e985e9c514610254578063f242432a14610284578063f2fde38b146102a0576100e9565b80635b70ea9f14610206578063715018a6146102105780638da5cb5b1461021a576100e9565b8063093d8c64116100c8578063093d8c641461016c5780630e89341c1461018a5780632eb2c2d6146101ba5780634e1273f4146101d6576100e9565b8062fdd58e146100ee578063010a38f51461011e57806301ffc9a71461013c575b600080fd5b61010860048036038101906101039190611dd4565b6102bc565b6040516101159190612538565b60405180910390f35b610126610385565b6040516101339190612538565b60405180910390f35b61015660048036038101906101519190611e7c565b61038f565b604051610163919061233b565b60405180910390f35b610174610471565b6040516101819190612538565b60405180910390f35b6101a4600480360381019061019f9190611ece565b610495565b6040516101b19190612356565b60405180910390f35b6101d460048036038101906101cf9190611c4a565b610529565b005b6101f060048036038101906101eb9190611e10565b6105ca565b6040516101fd91906122e2565b60405180910390f35b61020e61077b565b005b610218610817565b005b61022261089f565b60405161022f9190612205565b60405180910390f35b610252600480360381019061024d9190611d98565b6108c9565b005b61026e60048036038101906102699190611c0e565b6108df565b60405161027b919061233b565b60405180910390f35b61029e60048036038101906102999190611d09565b610973565b005b6102ba60048036038101906102b59190611be5565b610a14565b005b60008073ffffffffffffffffffffffffffffffffffffffff168373ffffffffffffffffffffffffffffffffffffffff16141561032d576040517f08c379a0000000000000000000000000000000000000000000000000000000008152600401610324906123b8565b60405180910390fd5b60008083815260200190815260200160002060008473ffffffffffffffffffffffffffffffffffffffff1673ffffffffffffffffffffffffffffffffffffffff16815260200190815260200160002054905092915050565b6000600454905090565b60007fd9b67a26000000000000000000000000000000000000000000000000000000007bffffffffffffffffffffffffffffffffffffffffffffffffffffffff1916827bffffffffffffffffffffffffffffffffffffffffffffffffffffffff1916148061045a57507f0e89341c000000000000000000000000000000000000000000000000000000007bffffffffffffffffffffffffffffffffffffffffffffffffffffffff1916827bffffffffffffffffffffffffffffffffffffffffffffffffffffffff1916145b8061046a575061046982610b0c565b5b9050919050565b7f000000000000000000000000000000000000000000000000000000000000000081565b6060600280546104a4906127a7565b80601f01602080910402602001604051908101604052809291908181526020018280546104d0906127a7565b801561051d5780601f106104f25761010080835404028352916020019161051d565b820191906000526020600020905b81548152906001019060200180831161050057829003601f168201915b50505050509050919050565b610531610b76565b73ffffffffffffffffffffffffffffffffffffffff168573ffffffffffffffffffffffffffffffffffffffff161480610577575061057685610571610b76565b6108df565b5b6105b6576040517f08c379a00000000000000000000000000000000000000000000000000000000081526004016105ad90612438565b60405180910390fd5b6105c38585858585610b7e565b5050505050565b60608151835114610610576040517f08c379a0000000000000000000000000000000000000000000000000000000008152600401610607906124b8565b60405180910390fd5b6000835167ffffffffffffffff811115610653577f4e487b7100000000000000000000000000000000000000000000000000000000600052604160045260246000fd5b6040519080825280602002602001820160405280156106815781602001602082028036833780820191505090505b50905060005b84518110156107705761071a8582815181106106cc577f4e487b7100000000000000000000000000000000000000000000000000000000600052603260045260246000fd5b602002602001015185838151811061070d577f4e487b7100000000000000000000000000000000000000000000000000000000600052603260045260246000fd5b60200260200101516102bc565b828281518110610753577f4e487b7100000000000000000000000000000000000000000000000000000000600052603260045260246000fd5b602002602001018181525050806107699061280a565b9050610687565b508091505092915050565b7f0000000000000000000000000000000000000000000000000000000000000000600454106107df576040517f08c379a00000000000000000000000000000000000000000000000000000000081526004016107d690612518565b60405180910390fd5b600460008154809291906107f29061280a565b919050555061081533600454600160405180602001604052806000815250610ede565b565b61081f610b76565b73ffffffffffffffffffffffffffffffffffffffff1661083d61089f565b73ffffffffffffffffffffffffffffffffffffffff1614610893576040517f08c379a000000000000000000000000000000000000000000000000000000000815260040161088a90612478565b60405180910390fd5b61089d6000611074565b565b6000600360009054906101000a900473ffffffffffffffffffffffffffffffffffffffff16905090565b6108db6108d4610b76565b838361113a565b5050565b6000600160008473ffffffffffffffffffffffffffffffffffffffff1673ffffffffffffffffffffffffffffffffffffffff16815260200190815260200160002060008373ffffffffffffffffffffffffffffffffffffffff1673ffffffffffffffffffffffffffffffffffffffff16815260200190815260200160002060009054906101000a900460ff16905092915050565b61097b610b76565b73ffffffffffffffffffffffffffffffffffffffff168573ffffffffffffffffffffffffffffffffffffffff1614806109c157506109c0856109bb610b76565b6108df565b5b610a00576040517f08c379a00000000000000000000000000000000000000000000000000000000081526004016109f7906123f8565b60405180910390fd5b610a0d85858585856112a7565b5050505050565b610a1c610b76565b73ffffffffffffffffffffffffffffffffffffffff16610a3a61089f565b73ffffffffffffffffffffffffffffffffffffffff1614610a90576040517f08c379a0000000000000000000000000000000000000000000000000000000008152600401610a8790612478565b60405180910390fd5b600073ffffffffffffffffffffffffffffffffffffffff168173ffffffffffffffffffffffffffffffffffffffff161415610b00576040517f08c379a0000000000000000000000000000000000000000000000000000000008152600401610af7906123d8565b60405180910390fd5b610b0981611074565b50565b60007f01ffc9a7000000000000000000000000000000000000000000000000000000007bffffffffffffffffffffffffffffffffffffffffffffffffffffffff1916827bffffffffffffffffffffffffffffffffffffffffffffffffffffffff1916149050919050565b600033905090565b8151835114610bc2576040517f08c379a0000000000000000000000000000000000000000000000000000000008152600401610bb9906124d8565b60405180910390fd5b600073ffffffffffffffffffffffffffffffffffffffff168473ffffffffffffffffffffffffffffffffffffffff161415610c32576040517f08c379a0000000000000000000000000000000000000000000000000000000008152600401610c2990612418565b60405180910390fd5b6000610c3c610b76565b9050610c4c818787878787611529565b60005b8451811015610e49576000858281518110610c93577f4e487b7100000000000000000000000000000000000000000000000000000000600052603260045260246000fd5b602002602001015190506000858381518110610cd8577f4e487b7100000000000000000000000000000000000000000000000000000000600052603260045260246000fd5b60200260200101519050600080600084815260200190815260200160002060008b73ffffffffffffffffffffffffffffffffffffffff1673ffffffffffffffffffffffffffffffffffffffff16815260200190815260200160002054905081811015610d79576040517f08c379a0000000000000000000000000000000000000000000000000000000008152600401610d7090612458565b60405180910390fd5b81810360008085815260200190815260200160002060008c73ffffffffffffffffffffffffffffffffffffffff1673ffffffffffffffffffffffffffffffffffffffff168152602001908152602001600020819055508160008085815260200190815260200160002060008b73ffffffffffffffffffffffffffffffffffffffff1673ffffffffffffffffffffffffffffffffffffffff1681526020019081526020016000206000828254610e2e919061269b565b9250508190555050505080610e429061280a565b9050610c4f565b508473ffffffffffffffffffffffffffffffffffffffff168673ffffffffffffffffffffffffffffffffffffffff168273ffffffffffffffffffffffffffffffffffffffff167f4a39dc06d4c0dbc64b70af90fd698a233a518aa5d07e595d983b8c0526c8f7fb8787604051610ec0929190612304565b60405180910390a4610ed6818787878787611531565b505050505050565b600073ffffffffffffffffffffffffffffffffffffffff168473ffffffffffffffffffffffffffffffffffffffff161415610f4e576040517f08c379a0000000000000000000000000000000000000000000000000000000008152600401610f45906124f8565b60405180910390fd5b6000610f58610b76565b9050610f7981600087610f6a88611718565b610f7388611718565b87611529565b8260008086815260200190815260200160002060008773ffffffffffffffffffffffffffffffffffffffff1673ffffffffffffffffffffffffffffffffffffffff1681526020019081526020016000206000828254610fd8919061269b565b925050819055508473ffffffffffffffffffffffffffffffffffffffff16600073ffffffffffffffffffffffffffffffffffffffff168273ffffffffffffffffffffffffffffffffffffffff167fc3d58168c5ae7397731d063d5bbf3d657854427343f4c083240f7aacaa2d0f628787604051611056929190612553565b60405180910390a461106d816000878787876117de565b5050505050565b6000600360009054906101000a900473ffffffffffffffffffffffffffffffffffffffff16905081600360006101000a81548173ffffffffffffffffffffffffffffffffffffffff021916908373ffffffffffffffffffffffffffffffffffffffff1602179055508173ffffffffffffffffffffffffffffffffffffffff168173ffffffffffffffffffffffffffffffffffffffff167f8be0079c531659141344cd1fd0a4f28419497f9722a3daafe3b4186f6b6457e060405160405180910390a35050565b8173ffffffffffffffffffffffffffffffffffffffff168373ffffffffffffffffffffffffffffffffffffffff1614156111a9576040517f08c379a00000000000000000000000000000000000000000000000000000000081526004016111a090612498565b60405180910390fd5b80600160008573ffffffffffffffffffffffffffffffffffffffff1673ffffffffffffffffffffffffffffffffffffffff16815260200190815260200160002060008473ffffffffffffffffffffffffffffffffffffffff1673ffffffffffffffffffffffffffffffffffffffff16815260200190815260200160002060006101000a81548160ff0219169083151502179055508173ffffffffffffffffffffffffffffffffffffffff168373ffffffffffffffffffffffffffffffffffffffff167f17307eab39ab6107e8899845ad3d59bd9653f200f220920489ca2b5937696c318360405161129a919061233b565b60405180910390a3505050565b600073ffffffffffffffffffffffffffffffffffffffff168473ffffffffffffffffffffffffffffffffffffffff161415611317576040517f08c379a000000000000000000000000000000000000000000000000000000000815260040161130e90612418565b60405180910390fd5b6000611321610b76565b905061134181878761133288611718565b61133b88611718565b87611529565b600080600086815260200190815260200160002060008873ffffffffffffffffffffffffffffffffffffffff1673ffffffffffffffffffffffffffffffffffffffff168152602001908152602001600020549050838110156113d8576040517f08c379a00000000000000000000000000000000000000000000000000000000081526004016113cf90612458565b60405180910390fd5b83810360008087815260200190815260200160002060008973ffffffffffffffffffffffffffffffffffffffff1673ffffffffffffffffffffffffffffffffffffffff168152602001908152602001600020819055508360008087815260200190815260200160002060008873ffffffffffffffffffffffffffffffffffffffff1673ffffffffffffffffffffffffffffffffffffffff168152602001908152602001600020600082825461148d919061269b565b925050819055508573ffffffffffffffffffffffffffffffffffffffff168773ffffffffffffffffffffffffffffffffffffffff168373ffffffffffffffffffffffffffffffffffffffff167fc3d58168c5ae7397731d063d5bbf3d657854427343f4c083240f7aacaa2d0f62888860405161150a929190612553565b60405180910390a46115208288888888886117de565b50505050505050565b505050505050565b6115508473ffffffffffffffffffffffffffffffffffffffff166119c5565b15611710578373ffffffffffffffffffffffffffffffffffffffff1663bc197c8187878686866040518663ffffffff1660e01b8152600401611596959493929190612220565b602060405180830381600087803b1580156115b057600080fd5b505af19250505080156115e157506040513d601f19601f820116820180604052508101906115de9190611ea5565b60015b611687576115ed6128e0565b806308c379a0141561164a5750611602612d26565b8061160d575061164c565b806040517f08c379a00000000000000000000000000000000000000000000000000000000081526004016116419190612356565b60405180910390fd5b505b6040517f08c379a000000000000000000000000000000000000000000000000000000000815260040161167e90612378565b60405180910390fd5b63bc197c8160e01b7bffffffffffffffffffffffffffffffffffffffffffffffffffffffff1916817bffffffffffffffffffffffffffffffffffffffffffffffffffffffff19161461170e576040517f08c379a000000000000000000000000000000000000000000000000000000000815260040161170590612398565b60405180910390fd5b505b505050505050565b60606000600167ffffffffffffffff81111561175d577f4e487b7100000000000000000000000000000000000000000000000000000000600052604160045260246000fd5b60405190808252806020026020018201604052801561178b5781602001602082028036833780820191505090505b50905082816000815181106117c9577f4e487b7100000000000000000000000000000000000000000000000000000000600052603260045260246000fd5b60200260200101818152505080915050919050565b6117fd8473ffffffffffffffffffffffffffffffffffffffff166119c5565b156119bd578373ffffffffffffffffffffffffffffffffffffffff1663f23a6e6187878686866040518663ffffffff1660e01b8152600401611843959493929190612288565b602060405180830381600087803b15801561185d57600080fd5b505af192505050801561188e57506040513d601f19601f8201168201806040525081019061188b9190611ea5565b60015b6119345761189a6128e0565b806308c379a014156118f757506118af612d26565b806118ba57506118f9565b806040517f08c379a00000000000000000000000000000000000000000000000000000000081526004016118ee9190612356565b60405180910390fd5b505b6040517f08c379a000000000000000000000000000000000000000000000000000000000815260040161192b90612378565b60405180910390fd5b63f23a6e6160e01b7bffffffffffffffffffffffffffffffffffffffffffffffffffffffff1916817bffffffffffffffffffffffffffffffffffffffffffffffffffffffff1916146119bb576040517f08c379a00000000000000000000000000000000000000000000000000000000081526004016119b290612398565b60405180910390fd5b505b505050505050565b6000808273ffffffffffffffffffffffffffffffffffffffff163b119050919050565b60006119fb6119f6846125a1565b61257c565b90508083825260208201905082856020860282011115611a1a57600080fd5b60005b85811015611a4a5781611a308882611afe565b845260208401935060208301925050600181019050611a1d565b5050509392505050565b6000611a67611a62846125cd565b61257c565b90508083825260208201905082856020860282011115611a8657600080fd5b60005b85811015611ab65781611a9c8882611bd0565b845260208401935060208301925050600181019050611a89565b5050509392505050565b6000611ad3611ace846125f9565b61257c565b905082815260208101848484011115611aeb57600080fd5b611af6848285612765565b509392505050565b600081359050611b0d81612dbc565b92915050565b600082601f830112611b2457600080fd5b8135611b348482602086016119e8565b91505092915050565b600082601f830112611b4e57600080fd5b8135611b5e848260208601611a54565b91505092915050565b600081359050611b7681612dd3565b92915050565b600081359050611b8b81612dea565b92915050565b600081519050611ba081612dea565b92915050565b600082601f830112611bb757600080fd5b8135611bc7848260208601611ac0565b91505092915050565b600081359050611bdf81612e01565b92915050565b600060208284031215611bf757600080fd5b6000611c0584828501611afe565b91505092915050565b60008060408385031215611c2157600080fd5b6000611c2f85828601611afe565b9250506020611c4085828601611afe565b9150509250929050565b600080600080600060a08688031215611c6257600080fd5b6000611c7088828901611afe565b9550506020611c8188828901611afe565b945050604086013567ffffffffffffffff811115611c9e57600080fd5b611caa88828901611b3d565b935050606086013567ffffffffffffffff811115611cc757600080fd5b611cd388828901611b3d565b925050608086013567ffffffffffffffff811115611cf057600080fd5b611cfc88828901611ba6565b9150509295509295909350565b600080600080600060a08688031215611d2157600080fd5b6000611d2f88828901611afe565b9550506020611d4088828901611afe565b9450506040611d5188828901611bd0565b9350506060611d6288828901611bd0565b925050608086013567ffffffffffffffff811115611d7f57600080fd5b611d8b88828901611ba6565b9150509295509295909350565b60008060408385031215611dab57600080fd5b6000611db985828601611afe565b9250506020611dca85828601611b67565b9150509250929050565b60008060408385031215611de757600080fd5b6000611df585828601611afe565b9250506020611e0685828601611bd0565b9150509250929050565b60008060408385031215611e2357600080fd5b600083013567ffffffffffffffff811115611e3d57600080fd5b611e4985828601611b13565b925050602083013567ffffffffffffffff811115611e6657600080fd5b611e7285828601611b3d565b9150509250929050565b600060208284031215611e8e57600080fd5b6000611e9c84828501611b7c565b91505092915050565b600060208284031215611eb757600080fd5b6000611ec584828501611b91565b91505092915050565b600060208284031215611ee057600080fd5b6000611eee84828501611bd0565b91505092915050565b6000611f0383836121e7565b60208301905092915050565b611f18816126f1565b82525050565b6000611f298261263a565b611f338185612668565b9350611f3e8361262a565b8060005b83811015611f6f578151611f568882611ef7565b9750611f618361265b565b925050600181019050611f42565b5085935050505092915050565b611f8581612703565b82525050565b6000611f9682612645565b611fa08185612679565b9350611fb0818560208601612774565b611fb981612902565b840191505092915050565b6000611fcf82612650565b611fd9818561268a565b9350611fe9818560208601612774565b611ff281612902565b840191505092915050565b600061200a60348361268a565b915061201582612920565b604082019050919050565b600061202d60288361268a565b91506120388261296f565b604082019050919050565b6000612050602b8361268a565b915061205b826129be565b604082019050919050565b600061207360268361268a565b915061207e82612a0d565b604082019050919050565b600061209660298361268a565b91506120a182612a5c565b604082019050919050565b60006120b960258361268a565b91506120c482612aab565b604082019050919050565b60006120dc60328361268a565b91506120e782612afa565b604082019050919050565b60006120ff602a8361268a565b915061210a82612b49565b604082019050919050565b600061212260208361268a565b915061212d82612b98565b602082019050919050565b600061214560298361268a565b915061215082612bc1565b604082019050919050565b600061216860298361268a565b915061217382612c10565b604082019050919050565b600061218b60288361268a565b915061219682612c5f565b604082019050919050565b60006121ae60218361268a565b91506121b982612cae565b604082019050919050565b60006121d160128361268a565b91506121dc82612cfd565b602082019050919050565b6121f08161275b565b82525050565b6121ff8161275b565b82525050565b600060208201905061221a6000830184611f0f565b92915050565b600060a0820190506122356000830188611f0f565b6122426020830187611f0f565b81810360408301526122548186611f1e565b905081810360608301526122688185611f1e565b9050818103608083015261227c8184611f8b565b90509695505050505050565b600060a08201905061229d6000830188611f0f565b6122aa6020830187611f0f565b6122b760408301866121f6565b6122c460608301856121f6565b81810360808301526122d68184611f8b565b90509695505050505050565b600060208201905081810360008301526122fc8184611f1e565b905092915050565b6000604082019050818103600083015261231e8185611f1e565b905081810360208301526123328184611f1e565b90509392505050565b60006020820190506123506000830184611f7c565b92915050565b600060208201905081810360008301526123708184611fc4565b905092915050565b6000602082019050818103600083015261239181611ffd565b9050919050565b600060208201905081810360008301526123b181612020565b9050919050565b600060208201905081810360008301526123d181612043565b9050919050565b600060208201905081810360008301526123f181612066565b9050919050565b6000602082019050818103600083015261241181612089565b9050919050565b60006020820190508181036000830152612431816120ac565b9050919050565b60006020820190508181036000830152612451816120cf565b9050919050565b60006020820190508181036000830152612471816120f2565b9050919050565b6000602082019050818103600083015261249181612115565b9050919050565b600060208201905081810360008301526124b181612138565b9050919050565b600060208201905081810360008301526124d18161215b565b9050919050565b600060208201905081810360008301526124f18161217e565b9050919050565b60006020820190508181036000830152612511816121a1565b9050919050565b60006020820190508181036000830152612531816121c4565b9050919050565b600060208201905061254d60008301846121f6565b92915050565b600060408201905061256860008301856121f6565b61257560208301846121f6565b9392505050565b6000612586612597565b905061259282826127d9565b919050565b6000604051905090565b600067ffffffffffffffff8211156125bc576125bb6128b1565b5b602082029050602081019050919050565b600067ffffffffffffffff8211156125e8576125e76128b1565b5b602082029050602081019050919050565b600067ffffffffffffffff821115612614576126136128b1565b5b61261d82612902565b9050602081019050919050565b6000819050602082019050919050565b600081519050919050565b600081519050919050565b600081519050919050565b6000602082019050919050565b600082825260208201905092915050565b600082825260208201905092915050565b600082825260208201905092915050565b60006126a68261275b565b91506126b18361275b565b9250827fffffffffffffffffffffffffffffffffffffffffffffffffffffffffffffffff038211156126e6576126e5612853565b5b828201905092915050565b60006126fc8261273b565b9050919050565b60008115159050919050565b60007fffffffff0000000000000000000000000000000000000000000000000000000082169050919050565b600073ffffffffffffffffffffffffffffffffffffffff82169050919050565b6000819050919050565b82818337600083830152505050565b60005b83811015612792578082015181840152602081019050612777565b838111156127a1576000848401525b50505050565b600060028204905060018216806127bf57607f821691505b602082108114156127d3576127d2612882565b5b50919050565b6127e282612902565b810181811067ffffffffffffffff82111715612801576128006128b1565b5b80604052505050565b60006128158261275b565b91507fffffffffffffffffffffffffffffffffffffffffffffffffffffffffffffffff82141561284857612847612853565b5b600182019050919050565b7f4e487b7100000000000000000000000000000000000000000000000000000000600052601160045260246000fd5b7f4e487b7100000000000000000000000000000000000000000000000000000000600052602260045260246000fd5b7f4e487b7100000000000000000000000000000000000000000000000000000000600052604160045260246000fd5b600060033d11156128ff5760046000803e6128fc600051612913565b90505b90565b6000601f19601f8301169050919050565b60008160e01c9050919050565b7f455243313135353a207472616e7366657220746f206e6f6e204552433131353560008201527f526563656976657220696d706c656d656e746572000000000000000000000000602082015250565b7f455243313135353a204552433131353552656365697665722072656a6563746560008201527f6420746f6b656e73000000000000000000000000000000000000000000000000602082015250565b7f455243313135353a2062616c616e636520717565727920666f7220746865207a60008201527f65726f2061646472657373000000000000000000000000000000000000000000602082015250565b7f4f776e61626c653a206e6577206f776e657220697320746865207a65726f206160008201527f6464726573730000000000000000000000000000000000000000000000000000602082015250565b7f455243313135353a2063616c6c6572206973206e6f74206f776e6572206e6f7260008201527f20617070726f7665640000000000000000000000000000000000000000000000602082015250565b7f455243313135353a207472616e7366657220746f20746865207a65726f20616460008201527f6472657373000000000000000000000000000000000000000000000000000000602082015250565b7f455243313135353a207472616e736665722063616c6c6572206973206e6f742060008201527f6f776e6572206e6f7220617070726f7665640000000000000000000000000000602082015250565b7f455243313135353a20696e73756666696369656e742062616c616e636520666f60008201527f72207472616e7366657200000000000000000000000000000000000000000000602082015250565b7f4f776e61626c653a2063616c6c6572206973206e6f7420746865206f776e6572600082015250565b7f455243313135353a2073657474696e6720617070726f76616c2073746174757360008201527f20666f722073656c660000000000000000000000000000000000000000000000602082015250565b7f455243313135353a206163636f756e747320616e6420696473206c656e67746860008201527f206d69736d617463680000000000000000000000000000000000000000000000602082015250565b7f455243313135353a2069647320616e6420616d6f756e7473206c656e6774682060008201527f6d69736d61746368000000000000000000000000000000000000000000000000602082015250565b7f455243313135353a206d696e7420746f20746865207a65726f2061646472657360008201527f7300000000000000000000000000000000000000000000000000000000000000602082015250565b7f4d41585f535550504c595f524541434845440000000000000000000000000000600082015250565b600060443d1015612d3657612db9565b612d3e612597565b60043d036004823e80513d602482011167ffffffffffffffff82111715612d66575050612db9565b808201805167ffffffffffffffff811115612d845750505050612db9565b80602083010160043d038501811115612da1575050505050612db9565b612db0826020018501866127d9565b82955050505050505b90565b612dc5816126f1565b8114612dd057600080fd5b50565b612ddc81612703565b8114612de757600080fd5b50565b612df38161270f565b8114612dfe57600080fd5b50565b612e0a8161275b565b8114612e1557600080fd5b5056fea26469706673582212203a7212466ffc215ed2bda98232cccd9f61f5e14e4814b44721c512238332595564736f6c63430008040033",
  "linkReferences": {},
  "deployedLinkReferences": {}
}