{
  "_format": "hh-sol-artifact-1",
  "contractName": "CryptoDevsNFT",
  "sourceName": "contracts/CryptoDevsNFT.sol",
  "abi": [
    {
      "inputs": [
        {
          "internalType": "uint256",
          "name": "maxNfts",
          "type": "uint256"
        }
      ],
      "stateMutability": "nonpayable",
      "type": "constructor"
    },
    {
      "anonymous": false,
      "inputs": [
        {
          "indexed": true,
          "internalType": "address",
          "name": "account",
          "type": "address"
        },
        {
          "indexed": true,
          "internalType": "address",
          "name": "operator",
          "type": "address"
        },
        {
          "indexed": false,
          "internalType": "bool",
          "name": "approved",
          "type": "bool"
        }
      ],
      "name": "ApprovalForAll",
      "type": "event"
    },
    {
      "anonymous": false,
      "inputs": [
        {
          "indexed": true,
          "internalType": "address",
          "name": "previousOwner",
          "type": "address"
        },
        {
          "indexed": true,
          "internalType": "address",
          "name": "newOwner",
          "type": "address"
        }
      ],
      "name": "OwnershipTransferred",
      "type": "event"
    },
    {
      "anonymous": false,
      "inputs": [
        {
          "indexed": true,
          "internalType": "address",
          "name": "operator",
          "type": "address"
        },
        {
          "indexed": true,
          "internalType": "address",
          "name": "from",
          "type": "address"
        },
        {
          "indexed": true,
          "internalType": "address",
          "name": "to",
          "type": "address"
        },
        {
          "indexed": false,
          "internalType": "uint256[]",
          "name": "ids",
          "type": "uint256[]"
        },
        {
          "indexed": false,
          "internalType": "uint256[]",
          "name": "values",
          "type": "uint256[]"
        }
      ],
      "name": "TransferBatch",
      "type": "event"
    },
    {
      "anonymous": false,
      "inputs": [
        {
          "indexed": true,
          "internalType": "address",
          "name": "operator",
          "type": "address"
        },
        {
          "indexed": true,
          "internalType": "address",
          "name": "from",
          "type": "address"
        },
        {
          "indexed": true,
          "internalType": "address",
          "name": "to",
          "type": "address"
        },
        {
          "indexed": false,
          "internalType": "uint256",
          "name": "id",
          "type": "uint256"
        },
        {
          "indexed": false,
          "internalType": "uint256",
          "name": "value",
          "type": "uint256"
        }
      ],
      "name": "TransferSingle",
      "type": "event"
    },
    {
      "anonymous": false,
      "inputs": [
        {
          "indexed": false,
          "internalType": "string",
          "name": "value",
          "type": "string"
        },
        {
          "indexed": true,
          "internalType": "uint256",
          "name": "id",
          "type": "uint256"
        }
      ],
      "name": "URI",
      "type": "event"
    },
    {
      "inputs": [],
      "name": "MAX_NFTS",
      "outputs": [
        {
          "internalType": "uint256",
          "name": "",
          "type": "uint256"
        }
      ],
      "stateMutability": "view",
      "type": "function"
    },
    {
      "inputs": [
        {
          "internalType": "address",
          "name": "account",
          "type": "address"
        },
        {
          "internalType": "uint256",
          "name": "id",
          "type": "uint256"
        }
      ],
      "name": "balanceOf",
      "outputs": [
        {
          "internalType": "uint256",
          "name": "",
          "type": "uint256"
        }
      ],
      "stateMutability": "view",
      "type": "function"
    },
    {
      "inputs": [
        {
          "internalType": "address[]",
          "name": "accounts",
          "type": "address[]"
        },
        {
          "internalType": "uint256[]",
          "name": "ids",
          "type": "uint256[]"
        }
      ],
      "name": "balanceOfBatch",
      "outputs": [
        {
          "internalType": "uint256[]",
          "name": "",
          "type": "uint256[]"
        }
      ],
      "stateMutability": "view",
      "type": "function"
    },
    {
      "inputs": [],
      "name": "freeMint",
      "outputs": [],
      "stateMutability": "nonpayable",
      "type": "function"
    },
    {
      "inputs": [
        {
          "internalType": "address",
          "name": "account",
          "type": "address"
        },
        {
          "internalType": "address",
          "name": "operator",
          "type": "address"
        }
      ],
      "name": "isApprovedForAll",
      "outputs": [
        {
          "internalType": "bool",
          "name": "",
          "type": "bool"
        }
      ],
      "stateMutability": "view",
      "type": "function"
    },
    {
      "inputs": [],
      "name": "owner",
      "outputs": [
        {
          "internalType": "address",
          "name": "",
          "type": "address"
        }
      ],
      "stateMutability": "view",
      "type": "function"
    },
    {
      "inputs": [],
      "name": "renounceOwnership",
      "outputs": [],
      "stateMutability": "nonpayable",
      "type": "function"
    },
    {
      "inputs": [
        {
          "internalType": "address",
          "name": "from",
          "type": "address"
        },
        {
          "internalType": "address",
          "name": "to",
          "type": "address"
        },
        {
          "internalType": "uint256[]",
          "name": "ids",
          "type": "uint256[]"
        },
        {
          "internalType": "uint256[]",
          "name": "amounts",
          "type": "uint256[]"
        },
        {
          "internalType": "bytes",
          "name": "data",
          "type": "bytes"
        }
      ],
      "name": "safeBatchTransferFrom",
      "outputs": [],
      "stateMutability": "nonpayable",
      "type": "function"
    },
    {
      "inputs": [
        {
          "internalType": "address",
          "name": "from",
          "type": "address"
        },
        {
          "internalType": "address",
          "name": "to",
          "type": "address"
        },
        {
          "internalType": "uint256",
          "name": "id",
          "type": "uint256"
        },
        {
          "internalType": "uint256",
          "name": "amount",
          "type": "uint256"
        },
        {
          "internalType": "bytes",
          "name": "data",
          "type": "bytes"
        }
      ],
      "name": "safeTransferFrom",
      "outputs": [],
      "stateMutability": "nonpayable",
      "type": "function"
    },
    {
      "inputs": [
        {
          "internalType": "address",
          "name": "operator",
          "type": "address"
        },
        {
          "internalType": "bool",
          "name": "approved",
          "type": "bool"
        }
      ],
      "name": "setApprovalForAll",
      "outputs": [],
      "stateMutability": "nonpayable",
      "type": "function"
    },
    {
      "inputs": [
        {
          "internalType": "bytes4",
          "name": "interfaceId",
          "type": "bytes4"
        }
      ],
      "name": "supportsInterface",
      "outputs": [
        {
          "internalType": "bool",
          "name": "",
          "type": "bool"
        }
      ],
      "stateMutability": "view",
      "type": "function"
    },
    {
      "inputs": [
        {
          "internalType": "address",
          "name": "newOwner",
          "type": "address"
        }
      ],
      "name": "transferOwnership",
      "outputs": [],
      "stateMutability": "nonpayable",
      "type": "function"
    },
    {
      "inputs": [
        {
          "internalType": "uint256",
          "name": "",
          "type": "uint256"
        }
      ],
      "name": "uri",
      "outputs": [
        {
          "internalType": "string",
          "name": "",
          "type": "string"
        }
      ],
      "stateMutability": "view",
      "type": "function"
    }
  ],
  "bytecode": "0x60a06040523480156200001157600080fd5b50604051620031423803806200314283398181016040528101906200003791906200025f565b6040518060400160405280600b81526020017f70756e6b64616f2e636f6d0000000000000000000000000000000000000000008152506200007e81620000ae60201b60201c565b506200009f62000093620000ca60201b60201c565b620000d260201b60201c565b80608081815250505062000314565b8060029080519060200190620000c692919062000198565b5050565b600033905090565b6000600360009054906101000a900473ffffffffffffffffffffffffffffffffffffffff16905081600360006101000a81548173ffffffffffffffffffffffffffffffffffffffff021916908373ffffffffffffffffffffffffffffffffffffffff1602179055508173ffffffffffffffffffffffffffffffffffffffff168173ffffffffffffffffffffffffffffffffffffffff167f8be0079c531659141344cd1fd0a4f28419497f9722a3daafe3b4186f6b6457e060405160405180910390a35050565b828054620001a69062000295565b90600052602060002090601f016020900481019282620001ca576000855562000216565b82601f10620001e557805160ff191683800117855562000216565b8280016001018555821562000216579182015b8281111562000215578251825591602001919060010190620001f8565b5b50905062000225919062000229565b5090565b5b80821115620002445760008160009055506001016200022a565b5090565b6000815190506200025981620002fa565b92915050565b6000602082840312156200027257600080fd5b6000620002828482850162000248565b91505092915050565b6000819050919050565b60006002820490506001821680620002ae57607f821691505b60208210811415620002c557620002c4620002cb565b5b50919050565b7f4e487b7100000000000000000000000000000000000000000000000000000000600052602260045260246000fd5b62000305816200028b565b81146200031157600080fd5b50565b608051612e0b6200033760003960008181610430015261073a0152612e0b6000f3fe608060405234801561001057600080fd5b50600436106100ce5760003560e01c80635b70ea9f1161008c578063a22cb46511610066578063a22cb465146101ff578063e985e9c51461021b578063f242432a1461024b578063f2fde38b14610267576100ce565b80635b70ea9f146101cd578063715018a6146101d75780638da5cb5b146101e1576100ce565b8062fdd58e146100d357806301ffc9a714610103578063093d8c64146101335780630e89341c146101515780632eb2c2d6146101815780634e1273f41461019d575b600080fd5b6100ed60048036038101906100e89190611d91565b610283565b6040516100fa91906124f5565b60405180910390f35b61011d60048036038101906101189190611e39565b61034c565b60405161012a91906122f8565b60405180910390f35b61013b61042e565b60405161014891906124f5565b60405180910390f35b61016b60048036038101906101669190611e8b565b610452565b6040516101789190612313565b60405180910390f35b61019b60048036038101906101969190611c07565b6104e6565b005b6101b760048036038101906101b29190611dcd565b610587565b6040516101c4919061229f565b60405180910390f35b6101d5610738565b005b6101df6107d4565b005b6101e961085c565b6040516101f691906121c2565b60405180910390f35b61021960048036038101906102149190611d55565b610886565b005b61023560048036038101906102309190611bcb565b61089c565b60405161024291906122f8565b60405180910390f35b61026560048036038101906102609190611cc6565b610930565b005b610281600480360381019061027c9190611ba2565b6109d1565b005b60008073ffffffffffffffffffffffffffffffffffffffff168373ffffffffffffffffffffffffffffffffffffffff1614156102f4576040517f08c379a00000000000000000000000000000000000000000000000000000000081526004016102eb90612375565b60405180910390fd5b60008083815260200190815260200160002060008473ffffffffffffffffffffffffffffffffffffffff1673ffffffffffffffffffffffffffffffffffffffff16815260200190815260200160002054905092915050565b60007fd9b67a26000000000000000000000000000000000000000000000000000000007bffffffffffffffffffffffffffffffffffffffffffffffffffffffff1916827bffffffffffffffffffffffffffffffffffffffffffffffffffffffff1916148061041757507f0e89341c000000000000000000000000000000000000000000000000000000007bffffffffffffffffffffffffffffffffffffffffffffffffffffffff1916827bffffffffffffffffffffffffffffffffffffffffffffffffffffffff1916145b80610427575061042682610ac9565b5b9050919050565b7f000000000000000000000000000000000000000000000000000000000000000081565b60606002805461046190612764565b80601f016020809104026020016040519081016040528092919081815260200182805461048d90612764565b80156104da5780601f106104af576101008083540402835291602001916104da565b820191906000526020600020905b8154815290600101906020018083116104bd57829003601f168201915b50505050509050919050565b6104ee610b33565b73ffffffffffffffffffffffffffffffffffffffff168573ffffffffffffffffffffffffffffffffffffffff16148061053457506105338561052e610b33565b61089c565b5b610573576040517f08c379a000000000000000000000000000000000000000000000000000000000815260040161056a906123f5565b60405180910390fd5b6105808585858585610b3b565b5050505050565b606081518351146105cd576040517f08c379a00000000000000000000000000000000000000000000000000000000081526004016105c490612475565b60405180910390fd5b6000835167ffffffffffffffff811115610610577f4e487b7100000000000000000000000000000000000000000000000000000000600052604160045260246000fd5b60405190808252806020026020018201604052801561063e5781602001602082028036833780820191505090505b50905060005b845181101561072d576106d7858281518110610689577f4e487b7100000000000000000000000000000000000000000000000000000000600052603260045260246000fd5b60200260200101518583815181106106ca577f4e487b7100000000000000000000000000000000000000000000000000000000600052603260045260246000fd5b6020026020010151610283565b828281518110610710577f4e487b7100000000000000000000000000000000000000000000000000000000600052603260045260246000fd5b60200260200101818152505080610726906127c7565b9050610644565b508091505092915050565b7f00000000000000000000000000000000000000000000000000000000000000006004541061079c576040517f08c379a0000000000000000000000000000000000000000000000000000000008152600401610793906124d5565b60405180910390fd5b600460008154809291906107af906127c7565b91905055506107d233600454600160405180602001604052806000815250610e9b565b565b6107dc610b33565b73ffffffffffffffffffffffffffffffffffffffff166107fa61085c565b73ffffffffffffffffffffffffffffffffffffffff1614610850576040517f08c379a000000000000000000000000000000000000000000000000000000000815260040161084790612435565b60405180910390fd5b61085a6000611031565b565b6000600360009054906101000a900473ffffffffffffffffffffffffffffffffffffffff16905090565b610898610891610b33565b83836110f7565b5050565b6000600160008473ffffffffffffffffffffffffffffffffffffffff1673ffffffffffffffffffffffffffffffffffffffff16815260200190815260200160002060008373ffffffffffffffffffffffffffffffffffffffff1673ffffffffffffffffffffffffffffffffffffffff16815260200190815260200160002060009054906101000a900460ff16905092915050565b610938610b33565b73ffffffffffffffffffffffffffffffffffffffff168573ffffffffffffffffffffffffffffffffffffffff16148061097e575061097d85610978610b33565b61089c565b5b6109bd576040517f08c379a00000000000000000000000000000000000000000000000000000000081526004016109b4906123b5565b60405180910390fd5b6109ca8585858585611264565b5050505050565b6109d9610b33565b73ffffffffffffffffffffffffffffffffffffffff166109f761085c565b73ffffffffffffffffffffffffffffffffffffffff1614610a4d576040517f08c379a0000000000000000000000000000000000000000000000000000000008152600401610a4490612435565b60405180910390fd5b600073ffffffffffffffffffffffffffffffffffffffff168173ffffffffffffffffffffffffffffffffffffffff161415610abd576040517f08c379a0000000000000000000000000000000000000000000000000000000008152600401610ab490612395565b60405180910390fd5b610ac681611031565b50565b60007f01ffc9a7000000000000000000000000000000000000000000000000000000007bffffffffffffffffffffffffffffffffffffffffffffffffffffffff1916827bffffffffffffffffffffffffffffffffffffffffffffffffffffffff1916149050919050565b600033905090565b8151835114610b7f576040517f08c379a0000000000000000000000000000000000000000000000000000000008152600401610b7690612495565b60405180910390fd5b600073ffffffffffffffffffffffffffffffffffffffff168473ffffffffffffffffffffffffffffffffffffffff161415610bef576040517f08c379a0000000000000000000000000000000000000000000000000000000008152600401610be6906123d5565b60405180910390fd5b6000610bf9610b33565b9050610c098187878787876114e6565b60005b8451811015610e06576000858281518110610c50577f4e487b7100000000000000000000000000000000000000000000000000000000600052603260045260246000fd5b602002602001015190506000858381518110610c95577f4e487b7100000000000000000000000000000000000000000000000000000000600052603260045260246000fd5b60200260200101519050600080600084815260200190815260200160002060008b73ffffffffffffffffffffffffffffffffffffffff1673ffffffffffffffffffffffffffffffffffffffff16815260200190815260200160002054905081811015610d36576040517f08c379a0000000000000000000000000000000000000000000000000000000008152600401610d2d90612415565b60405180910390fd5b81810360008085815260200190815260200160002060008c73ffffffffffffffffffffffffffffffffffffffff1673ffffffffffffffffffffffffffffffffffffffff168152602001908152602001600020819055508160008085815260200190815260200160002060008b73ffffffffffffffffffffffffffffffffffffffff1673ffffffffffffffffffffffffffffffffffffffff1681526020019081526020016000206000828254610deb9190612658565b9250508190555050505080610dff906127c7565b9050610c0c565b508473ffffffffffffffffffffffffffffffffffffffff168673ffffffffffffffffffffffffffffffffffffffff168273ffffffffffffffffffffffffffffffffffffffff167f4a39dc06d4c0dbc64b70af90fd698a233a518aa5d07e595d983b8c0526c8f7fb8787604051610e7d9291906122c1565b60405180910390a4610e938187878787876114ee565b505050505050565b600073ffffffffffffffffffffffffffffffffffffffff168473ffffffffffffffffffffffffffffffffffffffff161415610f0b576040517f08c379a0000000000000000000000000000000000000000000000000000000008152600401610f02906124b5565b60405180910390fd5b6000610f15610b33565b9050610f3681600087610f27886116d5565b610f30886116d5565b876114e6565b8260008086815260200190815260200160002060008773ffffffffffffffffffffffffffffffffffffffff1673ffffffffffffffffffffffffffffffffffffffff1681526020019081526020016000206000828254610f959190612658565b925050819055508473ffffffffffffffffffffffffffffffffffffffff16600073ffffffffffffffffffffffffffffffffffffffff168273ffffffffffffffffffffffffffffffffffffffff167fc3d58168c5ae7397731d063d5bbf3d657854427343f4c083240f7aacaa2d0f628787604051611013929190612510565b60405180910390a461102a8160008787878761179b565b5050505050565b6000600360009054906101000a900473ffffffffffffffffffffffffffffffffffffffff16905081600360006101000a81548173ffffffffffffffffffffffffffffffffffffffff021916908373ffffffffffffffffffffffffffffffffffffffff1602179055508173ffffffffffffffffffffffffffffffffffffffff168173ffffffffffffffffffffffffffffffffffffffff167f8be0079c531659141344cd1fd0a4f28419497f9722a3daafe3b4186f6b6457e060405160405180910390a35050565b8173ffffffffffffffffffffffffffffffffffffffff168373ffffffffffffffffffffffffffffffffffffffff161415611166576040517f08c379a000000000000000000000000000000000000000000000000000000000815260040161115d90612455565b60405180910390fd5b80600160008573ffffffffffffffffffffffffffffffffffffffff1673ffffffffffffffffffffffffffffffffffffffff16815260200190815260200160002060008473ffffffffffffffffffffffffffffffffffffffff1673ffffffffffffffffffffffffffffffffffffffff16815260200190815260200160002060006101000a81548160ff0219169083151502179055508173ffffffffffffffffffffffffffffffffffffffff168373ffffffffffffffffffffffffffffffffffffffff167f17307eab39ab6107e8899845ad3d59bd9653f200f220920489ca2b5937696c318360405161125791906122f8565b60405180910390a3505050565b600073ffffffffffffffffffffffffffffffffffffffff168473ffffffffffffffffffffffffffffffffffffffff1614156112d4576040517f08c379a00000000000000000000000000000000000000000000000000000000081526004016112cb906123d5565b60405180910390fd5b60006112de610b33565b90506112fe8187876112ef886116d5565b6112f8886116d5565b876114e6565b600080600086815260200190815260200160002060008873ffffffffffffffffffffffffffffffffffffffff1673ffffffffffffffffffffffffffffffffffffffff16815260200190815260200160002054905083811015611395576040517f08c379a000000000000000000000000000000000000000000000000000000000815260040161138c90612415565b60405180910390fd5b83810360008087815260200190815260200160002060008973ffffffffffffffffffffffffffffffffffffffff1673ffffffffffffffffffffffffffffffffffffffff168152602001908152602001600020819055508360008087815260200190815260200160002060008873ffffffffffffffffffffffffffffffffffffffff1673ffffffffffffffffffffffffffffffffffffffff168152602001908152602001600020600082825461144a9190612658565b925050819055508573ffffffffffffffffffffffffffffffffffffffff168773ffffffffffffffffffffffffffffffffffffffff168373ffffffffffffffffffffffffffffffffffffffff167fc3d58168c5ae7397731d063d5bbf3d657854427343f4c083240f7aacaa2d0f6288886040516114c7929190612510565b60405180910390a46114dd82888888888861179b565b50505050505050565b505050505050565b61150d8473ffffffffffffffffffffffffffffffffffffffff16611982565b156116cd578373ffffffffffffffffffffffffffffffffffffffff1663bc197c8187878686866040518663ffffffff1660e01b81526004016115539594939291906121dd565b602060405180830381600087803b15801561156d57600080fd5b505af192505050801561159e57506040513d601f19601f8201168201806040525081019061159b9190611e62565b60015b611644576115aa61289d565b806308c379a0141561160757506115bf612ce3565b806115ca5750611609565b806040517f08c379a00000000000000000000000000000000000000000000000000000000081526004016115fe9190612313565b60405180910390fd5b505b6040517f08c379a000000000000000000000000000000000000000000000000000000000815260040161163b90612335565b60405180910390fd5b63bc197c8160e01b7bffffffffffffffffffffffffffffffffffffffffffffffffffffffff1916817bffffffffffffffffffffffffffffffffffffffffffffffffffffffff1916146116cb576040517f08c379a00000000000000000000000000000000000000000000000000000000081526004016116c290612355565b60405180910390fd5b505b505050505050565b60606000600167ffffffffffffffff81111561171a577f4e487b7100000000000000000000000000000000000000000000000000000000600052604160045260246000fd5b6040519080825280602002602001820160405280156117485781602001602082028036833780820191505090505b5090508281600081518110611786577f4e487b7100000000000000000000000000000000000000000000000000000000600052603260045260246000fd5b60200260200101818152505080915050919050565b6117ba8473ffffffffffffffffffffffffffffffffffffffff16611982565b1561197a578373ffffffffffffffffffffffffffffffffffffffff1663f23a6e6187878686866040518663ffffffff1660e01b8152600401611800959493929190612245565b602060405180830381600087803b15801561181a57600080fd5b505af192505050801561184b57506040513d601f19601f820116820180604052508101906118489190611e62565b60015b6118f15761185761289d565b806308c379a014156118b4575061186c612ce3565b8061187757506118b6565b806040517f08c379a00000000000000000000000000000000000000000000000000000000081526004016118ab9190612313565b60405180910390fd5b505b6040517f08c379a00000000000000000000000000000000000000000000000000000000081526004016118e890612335565b60405180910390fd5b63f23a6e6160e01b7bffffffffffffffffffffffffffffffffffffffffffffffffffffffff1916817bffffffffffffffffffffffffffffffffffffffffffffffffffffffff191614611978576040517f08c379a000000000000000000000000000000000000000000000000000000000815260040161196f90612355565b60405180910390fd5b505b505050505050565b6000808273ffffffffffffffffffffffffffffffffffffffff163b119050919050565b60006119b86119b38461255e565b612539565b905080838252602082019050828560208602820111156119d757600080fd5b60005b85811015611a0757816119ed8882611abb565b8452602084019350602083019250506001810190506119da565b5050509392505050565b6000611a24611a1f8461258a565b612539565b90508083825260208201905082856020860282011115611a4357600080fd5b60005b85811015611a735781611a598882611b8d565b845260208401935060208301925050600181019050611a46565b5050509392505050565b6000611a90611a8b846125b6565b612539565b905082815260208101848484011115611aa857600080fd5b611ab3848285612722565b509392505050565b600081359050611aca81612d79565b92915050565b600082601f830112611ae157600080fd5b8135611af18482602086016119a5565b91505092915050565b600082601f830112611b0b57600080fd5b8135611b1b848260208601611a11565b91505092915050565b600081359050611b3381612d90565b92915050565b600081359050611b4881612da7565b92915050565b600081519050611b5d81612da7565b92915050565b600082601f830112611b7457600080fd5b8135611b84848260208601611a7d565b91505092915050565b600081359050611b9c81612dbe565b92915050565b600060208284031215611bb457600080fd5b6000611bc284828501611abb565b91505092915050565b60008060408385031215611bde57600080fd5b6000611bec85828601611abb565b9250506020611bfd85828601611abb565b9150509250929050565b600080600080600060a08688031215611c1f57600080fd5b6000611c2d88828901611abb565b9550506020611c3e88828901611abb565b945050604086013567ffffffffffffffff811115611c5b57600080fd5b611c6788828901611afa565b935050606086013567ffffffffffffffff811115611c8457600080fd5b611c9088828901611afa565b925050608086013567ffffffffffffffff811115611cad57600080fd5b611cb988828901611b63565b9150509295509295909350565b600080600080600060a08688031215611cde57600080fd5b6000611cec88828901611abb565b9550506020611cfd88828901611abb565b9450506040611d0e88828901611b8d565b9350506060611d1f88828901611b8d565b925050608086013567ffffffffffffffff811115611d3c57600080fd5b611d4888828901611b63565b9150509295509295909350565b60008060408385031215611d6857600080fd5b6000611d7685828601611abb565b9250506020611d8785828601611b24565b9150509250929050565b60008060408385031215611da457600080fd5b6000611db285828601611abb565b9250506020611dc385828601611b8d565b9150509250929050565b60008060408385031215611de057600080fd5b600083013567ffffffffffffffff811115611dfa57600080fd5b611e0685828601611ad0565b925050602083013567ffffffffffffffff811115611e2357600080fd5b611e2f85828601611afa565b9150509250929050565b600060208284031215611e4b57600080fd5b6000611e5984828501611b39565b91505092915050565b600060208284031215611e7457600080fd5b6000611e8284828501611b4e565b91505092915050565b600060208284031215611e9d57600080fd5b6000611eab84828501611b8d565b91505092915050565b6000611ec083836121a4565b60208301905092915050565b611ed5816126ae565b82525050565b6000611ee6826125f7565b611ef08185612625565b9350611efb836125e7565b8060005b83811015611f2c578151611f138882611eb4565b9750611f1e83612618565b925050600181019050611eff565b5085935050505092915050565b611f42816126c0565b82525050565b6000611f5382612602565b611f5d8185612636565b9350611f6d818560208601612731565b611f76816128bf565b840191505092915050565b6000611f8c8261260d565b611f968185612647565b9350611fa6818560208601612731565b611faf816128bf565b840191505092915050565b6000611fc7603483612647565b9150611fd2826128dd565b604082019050919050565b6000611fea602883612647565b9150611ff58261292c565b604082019050919050565b600061200d602b83612647565b91506120188261297b565b604082019050919050565b6000612030602683612647565b915061203b826129ca565b604082019050919050565b6000612053602983612647565b915061205e82612a19565b604082019050919050565b6000612076602583612647565b915061208182612a68565b604082019050919050565b6000612099603283612647565b91506120a482612ab7565b604082019050919050565b60006120bc602a83612647565b91506120c782612b06565b604082019050919050565b60006120df602083612647565b91506120ea82612b55565b602082019050919050565b6000612102602983612647565b915061210d82612b7e565b604082019050919050565b6000612125602983612647565b915061213082612bcd565b604082019050919050565b6000612148602883612647565b915061215382612c1c565b604082019050919050565b600061216b602183612647565b915061217682612c6b565b604082019050919050565b600061218e601283612647565b915061219982612cba565b602082019050919050565b6121ad81612718565b82525050565b6121bc81612718565b82525050565b60006020820190506121d76000830184611ecc565b92915050565b600060a0820190506121f26000830188611ecc565b6121ff6020830187611ecc565b81810360408301526122118186611edb565b905081810360608301526122258185611edb565b905081810360808301526122398184611f48565b90509695505050505050565b600060a08201905061225a6000830188611ecc565b6122676020830187611ecc565b61227460408301866121b3565b61228160608301856121b3565b81810360808301526122938184611f48565b90509695505050505050565b600060208201905081810360008301526122b98184611edb565b905092915050565b600060408201905081810360008301526122db8185611edb565b905081810360208301526122ef8184611edb565b90509392505050565b600060208201905061230d6000830184611f39565b92915050565b6000602082019050818103600083015261232d8184611f81565b905092915050565b6000602082019050818103600083015261234e81611fba565b9050919050565b6000602082019050818103600083015261236e81611fdd565b9050919050565b6000602082019050818103600083015261238e81612000565b9050919050565b600060208201905081810360008301526123ae81612023565b9050919050565b600060208201905081810360008301526123ce81612046565b9050919050565b600060208201905081810360008301526123ee81612069565b9050919050565b6000602082019050818103600083015261240e8161208c565b9050919050565b6000602082019050818103600083015261242e816120af565b9050919050565b6000602082019050818103600083015261244e816120d2565b9050919050565b6000602082019050818103600083015261246e816120f5565b9050919050565b6000602082019050818103600083015261248e81612118565b9050919050565b600060208201905081810360008301526124ae8161213b565b9050919050565b600060208201905081810360008301526124ce8161215e565b9050919050565b600060208201905081810360008301526124ee81612181565b9050919050565b600060208201905061250a60008301846121b3565b92915050565b600060408201905061252560008301856121b3565b61253260208301846121b3565b9392505050565b6000612543612554565b905061254f8282612796565b919050565b6000604051905090565b600067ffffffffffffffff8211156125795761257861286e565b5b602082029050602081019050919050565b600067ffffffffffffffff8211156125a5576125a461286e565b5b602082029050602081019050919050565b600067ffffffffffffffff8211156125d1576125d061286e565b5b6125da826128bf565b9050602081019050919050565b6000819050602082019050919050565b600081519050919050565b600081519050919050565b600081519050919050565b6000602082019050919050565b600082825260208201905092915050565b600082825260208201905092915050565b600082825260208201905092915050565b600061266382612718565b915061266e83612718565b9250827fffffffffffffffffffffffffffffffffffffffffffffffffffffffffffffffff038211156126a3576126a2612810565b5b828201905092915050565b60006126b9826126f8565b9050919050565b60008115159050919050565b60007fffffffff0000000000000000000000000000000000000000000000000000000082169050919050565b600073ffffffffffffffffffffffffffffffffffffffff82169050919050565b6000819050919050565b82818337600083830152505050565b60005b8381101561274f578082015181840152602081019050612734565b8381111561275e576000848401525b50505050565b6000600282049050600182168061277c57607f821691505b602082108114156127905761278f61283f565b5b50919050565b61279f826128bf565b810181811067ffffffffffffffff821117156127be576127bd61286e565b5b80604052505050565b60006127d282612718565b91507fffffffffffffffffffffffffffffffffffffffffffffffffffffffffffffffff82141561280557612804612810565b5b600182019050919050565b7f4e487b7100000000000000000000000000000000000000000000000000000000600052601160045260246000fd5b7f4e487b7100000000000000000000000000000000000000000000000000000000600052602260045260246000fd5b7f4e487b7100000000000000000000000000000000000000000000000000000000600052604160045260246000fd5b600060033d11156128bc5760046000803e6128b96000516128d0565b90505b90565b6000601f19601f8301169050919050565b60008160e01c9050919050565b7f455243313135353a207472616e7366657220746f206e6f6e204552433131353560008201527f526563656976657220696d706c656d656e746572000000000000000000000000602082015250565b7f455243313135353a204552433131353552656365697665722072656a6563746560008201527f6420746f6b656e73000000000000000000000000000000000000000000000000602082015250565b7f455243313135353a2062616c616e636520717565727920666f7220746865207a60008201527f65726f2061646472657373000000000000000000000000000000000000000000602082015250565b7f4f776e61626c653a206e6577206f776e657220697320746865207a65726f206160008201527f6464726573730000000000000000000000000000000000000000000000000000602082015250565b7f455243313135353a2063616c6c6572206973206e6f74206f776e6572206e6f7260008201527f20617070726f7665640000000000000000000000000000000000000000000000602082015250565b7f455243313135353a207472616e7366657220746f20746865207a65726f20616460008201527f6472657373000000000000000000000000000000000000000000000000000000602082015250565b7f455243313135353a207472616e736665722063616c6c6572206973206e6f742060008201527f6f776e6572206e6f7220617070726f7665640000000000000000000000000000602082015250565b7f455243313135353a20696e73756666696369656e742062616c616e636520666f60008201527f72207472616e7366657200000000000000000000000000000000000000000000602082015250565b7f4f776e61626c653a2063616c6c6572206973206e6f7420746865206f776e6572600082015250565b7f455243313135353a2073657474696e6720617070726f76616c2073746174757360008201527f20666f722073656c660000000000000000000000000000000000000000000000602082015250565b7f455243313135353a206163636f756e747320616e6420696473206c656e67746860008201527f206d69736d617463680000000000000000000000000000000000000000000000602082015250565b7f455243313135353a2069647320616e6420616d6f756e7473206c656e6774682060008201527f6d69736d61746368000000000000000000000000000000000000000000000000602082015250565b7f455243313135353a206d696e7420746f20746865207a65726f2061646472657360008201527f7300000000000000000000000000000000000000000000000000000000000000602082015250565b7f4d41585f535550504c595f524541434845440000000000000000000000000000600082015250565b600060443d1015612cf357612d76565b612cfb612554565b60043d036004823e80513d602482011167ffffffffffffffff82111715612d23575050612d76565b808201805167ffffffffffffffff811115612d415750505050612d76565b80602083010160043d038501811115612d5e575050505050612d76565b612d6d82602001850186612796565b82955050505050505b90565b612d82816126ae565b8114612d8d57600080fd5b50565b612d99816126c0565b8114612da457600080fd5b50565b612db0816126cc565b8114612dbb57600080fd5b50565b612dc781612718565b8114612dd257600080fd5b5056fea2646970667358221220e51ff4f0d42f39c51fb8d4866375a1b1d1fc6df984b05bcaaed4dd9d44dde83e64736f6c63430008040033",
  "linkReferences": {},
  "deployedLinkReferences": {}
}