{
  "_format": "hh-sol-artifact-1",
  "contractName": "CryptoDevsDAO",
  "sourceName": "contracts/CryptoDevsDAO.sol",
  "abi": [
    {
      "inputs": [
        {
          "internalType": "address",
          "name": "nftContract",
          "type": "address"
        },
        {
          "internalType": "address",
          "name": "marketplaceContract",
          "type": "address"
        }
      ],
      "stateMutability": "payable",
      "type": "constructor"
    },
    {
      "stateMutability": "payable",
      "type": "fallback"
    },
    {
      "inputs": [
        {
          "internalType": "uint256",
          "name": "_forTokenId",
          "type": "uint256"
        },
        {
          "internalType": "enum CryptoDevsDAO.ProposalType",
          "name": "_proposalType",
          "type": "uint8"
        }
      ],
      "name": "createProposal",
      "outputs": [
        {
          "internalType": "uint256",
          "name": "",
          "type": "uint256"
        }
      ],
      "stateMutability": "nonpayable",
      "type": "function"
    },
    {
      "inputs": [
        {
          "internalType": "uint256",
          "name": "_proposalId",
          "type": "uint256"
        }
      ],
      "name": "executeProposal",
      "outputs": [],
      "stateMutability": "nonpayable",
      "type": "function"
    },
    {
      "inputs": [
        {
          "internalType": "address",
          "name": "",
          "type": "address"
        }
      ],
      "name": "members",
      "outputs": [
        {
          "internalType": "uint256",
          "name": "joinedAt",
          "type": "uint256"
        }
      ],
      "stateMutability": "view",
      "type": "function"
    },
    {
      "inputs": [],
      "name": "numProposals",
      "outputs": [
        {
          "internalType": "uint256",
          "name": "",
          "type": "uint256"
        }
      ],
      "stateMutability": "view",
      "type": "function"
    },
    {
      "inputs": [
        {
          "internalType": "address",
          "name": "operator",
          "type": "address"
        },
        {
          "internalType": "address",
          "name": "from",
          "type": "address"
        },
        {
          "internalType": "uint256[]",
          "name": "ids",
          "type": "uint256[]"
        },
        {
          "internalType": "uint256[]",
          "name": "values",
          "type": "uint256[]"
        },
        {
          "internalType": "bytes",
          "name": "data",
          "type": "bytes"
        }
      ],
      "name": "onERC1155BatchReceived",
      "outputs": [
        {
          "internalType": "bytes4",
          "name": "",
          "type": "bytes4"
        }
      ],
      "stateMutability": "nonpayable",
      "type": "function"
    },
    {
      "inputs": [
        {
          "internalType": "address",
          "name": "",
          "type": "address"
        },
        {
          "internalType": "address",
          "name": "from",
          "type": "address"
        },
        {
          "internalType": "uint256",
          "name": "tokenId",
          "type": "uint256"
        },
        {
          "internalType": "uint256",
          "name": "amount",
          "type": "uint256"
        },
        {
          "internalType": "bytes",
          "name": "",
          "type": "bytes"
        }
      ],
      "name": "onERC1155Received",
      "outputs": [
        {
          "internalType": "bytes4",
          "name": "",
          "type": "bytes4"
        }
      ],
      "stateMutability": "nonpayable",
      "type": "function"
    },
    {
      "inputs": [
        {
          "internalType": "uint256",
          "name": "",
          "type": "uint256"
        }
      ],
      "name": "proposals",
      "outputs": [
        {
          "internalType": "uint256",
          "name": "nftTokenId",
          "type": "uint256"
        },
        {
          "internalType": "uint256",
          "name": "deadline",
          "type": "uint256"
        },
        {
          "internalType": "uint256",
          "name": "yayVotes",
          "type": "uint256"
        },
        {
          "internalType": "uint256",
          "name": "nayVotes",
          "type": "uint256"
        },
        {
          "internalType": "bool",
          "name": "executed",
          "type": "bool"
        },
        {
          "internalType": "enum CryptoDevsDAO.ProposalType",
          "name": "proposalType",
          "type": "uint8"
        }
      ],
      "stateMutability": "view",
      "type": "function"
    },
    {
      "inputs": [],
      "name": "quit",
      "outputs": [],
      "stateMutability": "nonpayable",
      "type": "function"
    },
    {
      "inputs": [
        {
          "internalType": "bytes4",
          "name": "",
          "type": "bytes4"
        }
      ],
      "name": "supportsInterface",
      "outputs": [
        {
          "internalType": "bool",
          "name": "",
          "type": "bool"
        }
      ],
      "stateMutability": "pure",
      "type": "function"
    },
    {
      "inputs": [
        {
          "internalType": "uint256",
          "name": "",
          "type": "uint256"
        }
      ],
      "name": "tokenLockedUp",
      "outputs": [
        {
          "internalType": "bool",
          "name": "",
          "type": "bool"
        }
      ],
      "stateMutability": "view",
      "type": "function"
    },
    {
      "inputs": [],
      "name": "totalVotingPower",
      "outputs": [
        {
          "internalType": "uint256",
          "name": "",
          "type": "uint256"
        }
      ],
      "stateMutability": "view",
      "type": "function"
    },
    {
      "inputs": [
        {
          "internalType": "uint256",
          "name": "_proposalId",
          "type": "uint256"
        },
        {
          "internalType": "enum CryptoDevsDAO.VoteType",
          "name": "_vote",
          "type": "uint8"
        }
      ],
      "name": "voteOnProposal",
      "outputs": [],
      "stateMutability": "nonpayable",
      "type": "function"
    },
    {
      "stateMutability": "payable",
      "type": "receive"
    }
  ],
  "bytecode": "0x608060405260405162002552380380620025528339818101604052810190620000299190620000c9565b81600160006101000a81548173ffffffffffffffffffffffffffffffffffffffff021916908373ffffffffffffffffffffffffffffffffffffffff160217905550806000806101000a81548173ffffffffffffffffffffffffffffffffffffffff021916908373ffffffffffffffffffffffffffffffffffffffff160217905550505062000158565b600081519050620000c3816200013e565b92915050565b60008060408385031215620000dd57600080fd5b6000620000ed85828601620000b2565b92505060206200010085828601620000b2565b9150509250929050565b600062000117826200011e565b9050919050565b600073ffffffffffffffffffffffffffffffffffffffff82169050919050565b62000149816200010a565b81146200015557600080fd5b50565b6123ea80620001686000396000f3fe6080604052600436106100ab5760003560e01c8063671b379311610064578063671b379314610201578063ba2e28b11461022c578063bc197c8114610269578063efafb22e146102a6578063f23a6e61146102cf578063fc2b8cc31461030c576100b2565b8063013cf08b146100b457806301ffc9a7146100f657806308ae4b0c146101335780630d61b5191461017057806332c378ea14610199578063400e3949146101d6576100b2565b366100b257005b005b3480156100c057600080fd5b506100db60048036038101906100d691906118bf565b610323565b6040516100ed96959493929190611d81565b60405180910390f35b34801561010257600080fd5b5061011d60048036038101906101189190611896565b610379565b60405161012a9190611bd0565b60405180910390f35b34801561013f57600080fd5b5061015a600480360381019061015591906116c0565b610384565b6040516101679190611d66565b60405180910390f35b34801561017c57600080fd5b50610197600480360381019061019291906118bf565b6103a2565b005b3480156101a557600080fd5b506101c060048036038101906101bb9190611911565b6107a8565b6040516101cd9190611d66565b60405180910390f35b3480156101e257600080fd5b506101eb610b67565b6040516101f89190611d66565b60405180910390f35b34801561020d57600080fd5b50610216610b6d565b6040516102239190611d66565b60405180910390f35b34801561023857600080fd5b50610253600480360381019061024e91906118bf565b610b73565b6040516102609190611bd0565b60405180910390f35b34801561027557600080fd5b50610290600480360381019061028b9190611712565b610b93565b60405161029d9190611beb565b60405180910390f35b3480156102b257600080fd5b506102cd60048036038101906102c8919061194d565b610ba1565b005b3480156102db57600080fd5b506102f660048036038101906102f191906117de565b610e7a565b6040516103039190611beb565b60405180910390f35b34801561031857600080fd5b50610321611182565b005b60026020528060005260406000206000915090508060000154908060010154908060020154908060030154908060040160009054906101000a900460ff16908060040160019054906101000a900460ff16905086565b600060019050919050565b60036020528060005260406000206000915090508060000154905081565b6000600360003373ffffffffffffffffffffffffffffffffffffffff1673ffffffffffffffffffffffffffffffffffffffff168152602001908152602001600020600101805490501161042a576040517f08c379a000000000000000000000000000000000000000000000000000000000815260040161042190611cc6565b60405180910390fd5b60006002600083815260200190815260200160002090504281600101541115610488576040517f08c379a000000000000000000000000000000000000000000000000000000000815260040161047f90611c26565b60405180910390fd5b600015158160040160009054906101000a900460ff161515146104e0576040517f08c379a00000000000000000000000000000000000000000000000000000000081526004016104d790611d06565b60405180910390fd5b60018160040160006101000a81548160ff0219169083151502179055508060030154816002015411156107a45760006001811115610547577f4e487b7100000000000000000000000000000000000000000000000000000000600052602160045260246000fd5b8160040160019054906101000a900460ff166001811115610591577f4e487b7100000000000000000000000000000000000000000000000000000000600052602160045260246000fd5b14156107135760008060009054906101000a900473ffffffffffffffffffffffffffffffffffffffff1673ffffffffffffffffffffffffffffffffffffffff1663ede287446040518163ffffffff1660e01b815260040160206040518083038186803b15801561060057600080fd5b505afa158015610614573d6000803e3d6000fd5b505050506040513d601f19601f8201168201806040525081019061063891906118e8565b90508047101561067d576040517f08c379a000000000000000000000000000000000000000000000000000000000815260040161067490611d46565b60405180910390fd5b60008054906101000a900473ffffffffffffffffffffffffffffffffffffffff1673ffffffffffffffffffffffffffffffffffffffff1663efef39a18284600001546040518363ffffffff1660e01b81526004016106db9190611d66565b6000604051808303818588803b1580156106f457600080fd5b505af1158015610708573d6000803e3d6000fd5b5050505050506107a3565b60008054906101000a900473ffffffffffffffffffffffffffffffffffffffff1673ffffffffffffffffffffffffffffffffffffffff1663e4849b3282600001546040518263ffffffff1660e01b81526004016107709190611d66565b600060405180830381600087803b15801561078a57600080fd5b505af115801561079e573d6000803e3d6000fd5b505050505b5b5050565b600080600360003373ffffffffffffffffffffffffffffffffffffffff1673ffffffffffffffffffffffffffffffffffffffff1681526020019081526020016000206001018054905011610831576040517f08c379a000000000000000000000000000000000000000000000000000000000815260040161082890611cc6565b60405180910390fd5b6000600181111561086b577f4e487b7100000000000000000000000000000000000000000000000000000000600052602160045260246000fd5b8260018111156108a4577f4e487b7100000000000000000000000000000000000000000000000000000000600052602160045260246000fd5b14156109975760008054906101000a900473ffffffffffffffffffffffffffffffffffffffff1673ffffffffffffffffffffffffffffffffffffffff166396e494e8846040518263ffffffff1660e01b81526004016109039190611d66565b60206040518083038186803b15801561091b57600080fd5b505afa15801561092f573d6000803e3d6000fd5b505050506040513d601f19601f82011682018060405250810190610953919061186d565b610992576040517f08c379a000000000000000000000000000000000000000000000000000000000815260040161098990611c86565b60405180910390fd5b610aae565b3073ffffffffffffffffffffffffffffffffffffffff1660008054906101000a900473ffffffffffffffffffffffffffffffffffffffff1673ffffffffffffffffffffffffffffffffffffffff16636352211e856040518263ffffffff1660e01b8152600401610a079190611d66565b60206040518083038186803b158015610a1f57600080fd5b505afa158015610a33573d6000803e3d6000fd5b505050506040513d601f19601f82011682018060405250810190610a5791906116e9565b73ffffffffffffffffffffffffffffffffffffffff1614610aad576040517f08c379a0000000000000000000000000000000000000000000000000000000008152600401610aa490611c46565b60405180910390fd5b5b60006002600060055481526020019081526020016000209050838160000181905550607842610add9190611e5a565b8160010181905550828160040160016101000a81548160ff02191690836001811115610b32577f4e487b7100000000000000000000000000000000000000000000000000000000600052602160045260246000fd5b021790555060056000815480929190610b4a90612048565b91905055506001600554610b5e9190611f3b565b91505092915050565b60055481565b60065481565b60046020528060005260406000206000915054906101000a900460ff1681565b600098975050505050505050565b6000600360003373ffffffffffffffffffffffffffffffffffffffff1673ffffffffffffffffffffffffffffffffffffffff1681526020019081526020016000206001018054905011610c29576040517f08c379a0000000000000000000000000000000000000000000000000000000008152600401610c2090611cc6565b60405180910390fd5b600060026000848152602001908152602001600020905042816001015411610c86576040517f08c379a0000000000000000000000000000000000000000000000000000000008152600401610c7d90611ce6565b60405180910390fd5b600015158160050160003373ffffffffffffffffffffffffffffffffffffffff1673ffffffffffffffffffffffffffffffffffffffff16815260200190815260200160002060009054906101000a900460ff16151514610d1b576040517f08c379a0000000000000000000000000000000000000000000000000000000008152600401610d1290611ca6565b60405180910390fd5b60018160050160003373ffffffffffffffffffffffffffffffffffffffff1673ffffffffffffffffffffffffffffffffffffffff16815260200190815260200160002060006101000a81548160ff0219169083151502179055506000600360003373ffffffffffffffffffffffffffffffffffffffff1673ffffffffffffffffffffffffffffffffffffffff16815260200190815260200160002060010180549050905060006001811115610df9577f4e487b7100000000000000000000000000000000000000000000000000000000600052602160045260246000fd5b836001811115610e32577f4e487b7100000000000000000000000000000000000000000000000000000000600052602160045260246000fd5b1415610e585780826002016000828254610e4c9190611e5a565b92505081905550610e74565b80826003016000828254610e6c9190611e5a565b925050819055505b50505050565b60003073ffffffffffffffffffffffffffffffffffffffff16600160009054906101000a900473ffffffffffffffffffffffffffffffffffffffff1673ffffffffffffffffffffffffffffffffffffffff16636352211e866040518263ffffffff1660e01b8152600401610eee9190611d66565b60206040518083038186803b158015610f0657600080fd5b505afa158015610f1a573d6000803e3d6000fd5b505050506040513d601f19601f82011682018060405250810190610f3e91906116e9565b73ffffffffffffffffffffffffffffffffffffffff1614610f94576040517f08c379a0000000000000000000000000000000000000000000000000000000008152600401610f8b90611d26565b60405180910390fd5b600015156004600086815260200190815260200160002060009054906101000a900460ff16151514610ffb576040517f08c379a0000000000000000000000000000000000000000000000000000000008152600401610ff290611c66565b60405180910390fd5b60016004600086815260200190815260200160002060006101000a81548160ff0219169083151502179055506000600360008773ffffffffffffffffffffffffffffffffffffffff1673ffffffffffffffffffffffffffffffffffffffff1681526020019081526020016000209050600081600101805490501415611084574281600001819055505b6006600081548092919061109790612048565b9190505550600360008773ffffffffffffffffffffffffffffffffffffffff1673ffffffffffffffffffffffffffffffffffffffff168152602001908152602001600020600101859080600181540180825580915050600190039060005260206000200160009091909190915055600360008773ffffffffffffffffffffffffffffffffffffffff1673ffffffffffffffffffffffffffffffffffffffff16815260200190815260200160002060020184908060018154018082558091505060019003906000526020600020016000909190919091505563f23a6e6160e01b91505095945050505050565b6000600360003373ffffffffffffffffffffffffffffffffffffffff1673ffffffffffffffffffffffffffffffffffffffff168152602001908152602001600020600101805490501161120a576040517f08c379a000000000000000000000000000000000000000000000000000000000815260040161120190611cc6565b60405180910390fd5b6000600360003373ffffffffffffffffffffffffffffffffffffffff1673ffffffffffffffffffffffffffffffffffffffff168152602001908152602001600020905061012c8160000154426112609190611f3b565b116112a0576040517f08c379a000000000000000000000000000000000000000000000000000000000815260040161129790611c06565b60405180910390fd5b60006006548260010180549050476112b89190611ee1565b6112c29190611eb0565b90508160010180549050600660008282546112dd9190611f3b565b925050819055503373ffffffffffffffffffffffffffffffffffffffff166108fc829081150290604051600060405180830381858888f1935050505015801561132a573d6000803e3d6000fd5b5060005b826001018054905081101561146f57600160009054906101000a900473ffffffffffffffffffffffffffffffffffffffff1673ffffffffffffffffffffffffffffffffffffffff1663f242432a30338660010185815481106113b9577f4e487b7100000000000000000000000000000000000000000000000000000000600052603260045260246000fd5b9060005260206000200154876002018681548110611400577f4e487b7100000000000000000000000000000000000000000000000000000000600052603260045260246000fd5b90600052602060002001546040518563ffffffff1660e01b815260040161142a9493929190611b78565b600060405180830381600087803b15801561144457600080fd5b505af1158015611458573d6000803e3d6000fd5b50505050808061146790612048565b91505061132e565b50600360003373ffffffffffffffffffffffffffffffffffffffff1673ffffffffffffffffffffffffffffffffffffffff1681526020019081526020016000206000808201600090556001820160006114c891906114de565b6002820160006114d891906114de565b50505050565b50805460008255906000526020600020908101906114fc91906114ff565b50565b5b80821115611518576000816000905550600101611500565b5090565b600061152f61152a84611e07565b611de2565b90508281526020810184848401111561154757600080fd5b611552848285612008565b509392505050565b60008135905061156981612338565b92915050565b60008151905061157e81612338565b92915050565b60008083601f84011261159657600080fd5b8235905067ffffffffffffffff8111156115af57600080fd5b6020830191508360208202830111156115c757600080fd5b9250929050565b6000815190506115dd8161234f565b92915050565b6000813590506115f281612366565b92915050565b60008083601f84011261160a57600080fd5b8235905067ffffffffffffffff81111561162357600080fd5b60208301915083600182028301111561163b57600080fd5b9250929050565b600082601f83011261165357600080fd5b813561166384826020860161151c565b91505092915050565b60008135905061167b8161237d565b92915050565b6000813590506116908161238d565b92915050565b6000813590506116a58161239d565b92915050565b6000815190506116ba8161239d565b92915050565b6000602082840312156116d257600080fd5b60006116e08482850161155a565b91505092915050565b6000602082840312156116fb57600080fd5b60006117098482850161156f565b91505092915050565b60008060008060008060008060a0898b03121561172e57600080fd5b600061173c8b828c0161155a565b985050602061174d8b828c0161155a565b975050604089013567ffffffffffffffff81111561176a57600080fd5b6117768b828c01611584565b9650965050606089013567ffffffffffffffff81111561179557600080fd5b6117a18b828c01611584565b9450945050608089013567ffffffffffffffff8111156117c057600080fd5b6117cc8b828c016115f8565b92509250509295985092959890939650565b600080600080600060a086880312156117f657600080fd5b60006118048882890161155a565b95505060206118158882890161155a565b945050604061182688828901611696565b935050606061183788828901611696565b925050608086013567ffffffffffffffff81111561185457600080fd5b61186088828901611642565b9150509295509295909350565b60006020828403121561187f57600080fd5b600061188d848285016115ce565b91505092915050565b6000602082840312156118a857600080fd5b60006118b6848285016115e3565b91505092915050565b6000602082840312156118d157600080fd5b60006118df84828501611696565b91505092915050565b6000602082840312156118fa57600080fd5b6000611908848285016116ab565b91505092915050565b6000806040838503121561192457600080fd5b600061193285828601611696565b92505060206119438582860161166c565b9150509250929050565b6000806040838503121561196057600080fd5b600061196e85828601611696565b925050602061197f85828601611681565b9150509250929050565b61199281611f6f565b82525050565b6119a181611f81565b82525050565b6119b081611f8d565b82525050565b6119bf81611ff6565b82525050565b60006119d2601583611e49565b91506119dd8261215e565b602082019050919050565b60006119f5600f83611e49565b9150611a0082612187565b602082019050919050565b6000611a18600983611e49565b9150611a23826121b0565b602082019050919050565b6000611a3b600c83611e49565b9150611a46826121d9565b602082019050919050565b6000611a5e601083611e49565b9150611a6982612202565b602082019050919050565b6000611a81600d83611e49565b9150611a8c8261222b565b602082019050919050565b6000611aa4600c83611e49565b9150611aaf82612254565b602082019050919050565b6000611ac7600083611e38565b9150611ad28261227d565b600082019050919050565b6000611aea601183611e49565b9150611af582612280565b602082019050919050565b6000611b0d601083611e49565b9150611b18826122a9565b602082019050919050565b6000611b30600983611e49565b9150611b3b826122d2565b602082019050919050565b6000611b53601083611e49565b9150611b5e826122fb565b602082019050919050565b611b7281611fec565b82525050565b600060a082019050611b8d6000830187611989565b611b9a6020830186611989565b611ba76040830185611b69565b611bb46060830184611b69565b8181036080830152611bc581611aba565b905095945050505050565b6000602082019050611be56000830184611998565b92915050565b6000602082019050611c0060008301846119a7565b92915050565b60006020820190508181036000830152611c1f816119c5565b9050919050565b60006020820190508181036000830152611c3f816119e8565b9050919050565b60006020820190508181036000830152611c5f81611a0b565b9050919050565b60006020820190508181036000830152611c7f81611a2e565b9050919050565b60006020820190508181036000830152611c9f81611a51565b9050919050565b60006020820190508181036000830152611cbf81611a74565b9050919050565b60006020820190508181036000830152611cdf81611a97565b9050919050565b60006020820190508181036000830152611cff81611add565b9050919050565b60006020820190508181036000830152611d1f81611b00565b9050919050565b60006020820190508181036000830152611d3f81611b23565b9050919050565b60006020820190508181036000830152611d5f81611b46565b9050919050565b6000602082019050611d7b6000830184611b69565b92915050565b600060c082019050611d966000830189611b69565b611da36020830188611b69565b611db06040830187611b69565b611dbd6060830186611b69565b611dca6080830185611998565b611dd760a08301846119b6565b979650505050505050565b6000611dec611dfd565b9050611df88282612017565b919050565b6000604051905090565b600067ffffffffffffffff821115611e2257611e2161211e565b5b611e2b8261214d565b9050602081019050919050565b600082825260208201905092915050565b600082825260208201905092915050565b6000611e6582611fec565b9150611e7083611fec565b9250827fffffffffffffffffffffffffffffffffffffffffffffffffffffffffffffffff03821115611ea557611ea4612091565b5b828201905092915050565b6000611ebb82611fec565b9150611ec683611fec565b925082611ed657611ed56120c0565b5b828204905092915050565b6000611eec82611fec565b9150611ef783611fec565b9250817fffffffffffffffffffffffffffffffffffffffffffffffffffffffffffffffff0483118215151615611f3057611f2f612091565b5b828202905092915050565b6000611f4682611fec565b9150611f5183611fec565b925082821015611f6457611f63612091565b5b828203905092915050565b6000611f7a82611fcc565b9050919050565b60008115159050919050565b60007fffffffff0000000000000000000000000000000000000000000000000000000082169050919050565b6000819050611fc782612324565b919050565b600073ffffffffffffffffffffffffffffffffffffffff82169050919050565b6000819050919050565b600061200182611fb9565b9050919050565b82818337600083830152505050565b6120208261214d565b810181811067ffffffffffffffff8211171561203f5761203e61211e565b5b80604052505050565b600061205382611fec565b91507fffffffffffffffffffffffffffffffffffffffffffffffffffffffffffffffff82141561208657612085612091565b5b600182019050919050565b7f4e487b7100000000000000000000000000000000000000000000000000000000600052601160045260246000fd5b7f4e487b7100000000000000000000000000000000000000000000000000000000600052601260045260246000fd5b7f4e487b7100000000000000000000000000000000000000000000000000000000600052602160045260246000fd5b7f4e487b7100000000000000000000000000000000000000000000000000000000600052604160045260246000fd5b6000601f19601f8301169050919050565b7f4d494e5f4d454d424552534849505f504552494f440000000000000000000000600082015250565b7f4143544956455f50524f504f53414c0000000000000000000000000000000000600082015250565b7f4e4f545f4f574e45440000000000000000000000000000000000000000000000600082015250565b7f414c52454144595f555345440000000000000000000000000000000000000000600082015250565b7f4e46545f4e4f545f464f525f53414c4500000000000000000000000000000000600082015250565b7f414c52454144595f564f54454400000000000000000000000000000000000000600082015250565b7f4e4f545f415f4d454d4245520000000000000000000000000000000000000000600082015250565b50565b7f494e4143544956455f50524f504f53414c000000000000000000000000000000600082015250565b7f414c52454144595f455845435554454400000000000000000000000000000000600082015250565b7f4d414c4943494f55530000000000000000000000000000000000000000000000600082015250565b7f4e4f545f454e4f5547485f46554e445300000000000000000000000000000000600082015250565b60028110612335576123346120ef565b5b50565b61234181611f6f565b811461234c57600080fd5b50565b61235881611f81565b811461236357600080fd5b50565b61236f81611f8d565b811461237a57600080fd5b50565b6002811061238a57600080fd5b50565b6002811061239a57600080fd5b50565b6123a681611fec565b81146123b157600080fd5b5056fea264697066735822122044ce00ddb2e7627c281c668d127e0d329831a3caf8c0deca960d2a62cca1444e64736f6c63430008040033",
  "linkReferences": {},
  "deployedLinkReferences": {}
}