{
  "contractName": "PunkNFT",
  "abi": [
    {
      "inputs": [],
      "stateMutability": "nonpayable",
      "type": "constructor"
    },
    {
      "anonymous": false,
      "inputs": [
        {
          "indexed": true,
          "internalType": "address",
          "name": "owner",
          "type": "address"
        },
        {
          "indexed": true,
          "internalType": "address",
          "name": "approved",
          "type": "address"
        },
        {
          "indexed": true,
          "internalType": "uint256",
          "name": "tokenId",
          "type": "uint256"
        }
      ],
      "name": "Approval",
      "type": "event"
    },
    {
      "anonymous": false,
      "inputs": [
        {
          "indexed": true,
          "internalType": "address",
          "name": "owner",
          "type": "address"
        },
        {
          "indexed": true,
          "internalType": "address",
          "name": "operator",
          "type": "address"
        },
        {
          "indexed": false,
          "internalType": "bool",
          "name": "approved",
          "type": "bool"
        }
      ],
      "name": "ApprovalForAll",
      "type": "event"
    },
    {
      "anonymous": false,
      "inputs": [
        {
          "indexed": true,
          "internalType": "address",
          "name": "from",
          "type": "address"
        },
        {
          "indexed": true,
          "internalType": "address",
          "name": "to",
          "type": "address"
        },
        {
          "indexed": true,
          "internalType": "uint256",
          "name": "tokenId",
          "type": "uint256"
        }
      ],
      "name": "Transfer",
      "type": "event"
    },
    {
      "inputs": [
        {
          "internalType": "address",
          "name": "to",
          "type": "address"
        },
        {
          "internalType": "uint256",
          "name": "tokenId",
          "type": "uint256"
        }
      ],
      "name": "approve",
      "outputs": [],
      "stateMutability": "nonpayable",
      "type": "function"
    },
    {
      "inputs": [
        {
          "internalType": "address",
          "name": "owner",
          "type": "address"
        }
      ],
      "name": "balanceOf",
      "outputs": [
        {
          "internalType": "uint256",
          "name": "",
          "type": "uint256"
        }
      ],
      "stateMutability": "view",
      "type": "function",
      "constant": true
    },
    {
      "inputs": [
        {
          "internalType": "uint256",
          "name": "tokenId",
          "type": "uint256"
        }
      ],
      "name": "getApproved",
      "outputs": [
        {
          "internalType": "address",
          "name": "",
          "type": "address"
        }
      ],
      "stateMutability": "view",
      "type": "function",
      "constant": true
    },
    {
      "inputs": [
        {
          "internalType": "address",
          "name": "owner",
          "type": "address"
        },
        {
          "internalType": "address",
          "name": "operator",
          "type": "address"
        }
      ],
      "name": "isApprovedForAll",
      "outputs": [
        {
          "internalType": "bool",
          "name": "",
          "type": "bool"
        }
      ],
      "stateMutability": "view",
      "type": "function",
      "constant": true
    },
    {
      "inputs": [],
      "name": "name",
      "outputs": [
        {
          "internalType": "string",
          "name": "",
          "type": "string"
        }
      ],
      "stateMutability": "view",
      "type": "function",
      "constant": true
    },
    {
      "inputs": [
        {
          "internalType": "uint256",
          "name": "tokenId",
          "type": "uint256"
        }
      ],
      "name": "ownerOf",
      "outputs": [
        {
          "internalType": "address",
          "name": "",
          "type": "address"
        }
      ],
      "stateMutability": "view",
      "type": "function",
      "constant": true
    },
    {
      "inputs": [
        {
          "internalType": "address",
          "name": "from",
          "type": "address"
        },
        {
          "internalType": "address",
          "name": "to",
          "type": "address"
        },
        {
          "internalType": "uint256",
          "name": "tokenId",
          "type": "uint256"
        }
      ],
      "name": "safeTransferFrom",
      "outputs": [],
      "stateMutability": "nonpayable",
      "type": "function"
    },
    {
      "inputs": [
        {
          "internalType": "address",
          "name": "from",
          "type": "address"
        },
        {
          "internalType": "address",
          "name": "to",
          "type": "address"
        },
        {
          "internalType": "uint256",
          "name": "tokenId",
          "type": "uint256"
        },
        {
          "internalType": "bytes",
          "name": "_data",
          "type": "bytes"
        }
      ],
      "name": "safeTransferFrom",
      "outputs": [],
      "stateMutability": "nonpayable",
      "type": "function"
    },
    {
      "inputs": [
        {
          "internalType": "address",
          "name": "operator",
          "type": "address"
        },
        {
          "internalType": "bool",
          "name": "approved",
          "type": "bool"
        }
      ],
      "name": "setApprovalForAll",
      "outputs": [],
      "stateMutability": "nonpayable",
      "type": "function"
    },
    {
      "inputs": [
        {
          "internalType": "bytes4",
          "name": "interfaceId",
          "type": "bytes4"
        }
      ],
      "name": "supportsInterface",
      "outputs": [
        {
          "internalType": "bool",
          "name": "",
          "type": "bool"
        }
      ],
      "stateMutability": "view",
      "type": "function",
      "constant": true
    },
    {
      "inputs": [],
      "name": "symbol",
      "outputs": [
        {
          "internalType": "string",
          "name": "",
          "type": "string"
        }
      ],
      "stateMutability": "view",
      "type": "function",
      "constant": true
    },
    {
      "inputs": [
        {
          "internalType": "uint256",
          "name": "index",
          "type": "uint256"
        }
      ],
      "name": "tokenByIndex",
      "outputs": [
        {
          "internalType": "uint256",
          "name": "",
          "type": "uint256"
        }
      ],
      "stateMutability": "view",
      "type": "function",
      "constant": true
    },
    {
      "inputs": [
        {
          "internalType": "address",
          "name": "owner",
          "type": "address"
        },
        {
          "internalType": "uint256",
          "name": "index",
          "type": "uint256"
        }
      ],
      "name": "tokenOfOwnerByIndex",
      "outputs": [
        {
          "internalType": "uint256",
          "name": "",
          "type": "uint256"
        }
      ],
      "stateMutability": "view",
      "type": "function",
      "constant": true
    },
    {
      "inputs": [
        {
          "internalType": "uint256",
          "name": "tokenId",
          "type": "uint256"
        }
      ],
      "name": "tokenURI",
      "outputs": [
        {
          "internalType": "string",
          "name": "",
          "type": "string"
        }
      ],
      "stateMutability": "view",
      "type": "function",
      "constant": true
    },
    {
      "inputs": [],
      "name": "totalSupply",
      "outputs": [
        {
          "internalType": "uint256",
          "name": "",
          "type": "uint256"
        }
      ],
      "stateMutability": "view",
      "type": "function",
      "constant": true
    },
    {
      "inputs": [
        {
          "internalType": "address",
          "name": "from",
          "type": "address"
        },
        {
          "internalType": "address",
          "name": "to",
          "type": "address"
        },
        {
          "internalType": "uint256",
          "name": "tokenId",
          "type": "uint256"
        }
      ],
      "name": "transferFrom",
      "outputs": [],
      "stateMutability": "nonpayable",
      "type": "function"
    },
    {
      "inputs": [],
      "name": "mint",
      "outputs": [],
      "stateMutability": "nonpayable",
      "type": "function"
    }
  ],
  "bytecode": "0x60806040523480156200001157600080fd5b506040518060400160405280600981526020017f50756e6b486f75736500000000000000000000000000000000000000000000008152506040518060400160405280600281526020017f5048000000000000000000000000000000000000000000000000000000000000815250816000908051906020019062000096929190620000b8565b508060019080519060200190620000af929190620000b8565b505050620001cc565b828054620000c69062000197565b90600052602060002090601f016020900481019282620000ea576000855562000136565b82601f106200010557805160ff191683800117855562000136565b8280016001018555821562000136579182015b828111156200013557825182559160200191906001019062000118565b5b50905062000145919062000149565b5090565b5b80821115620001645760008160009055506001016200014a565b5090565b7f4e487b7100000000000000000000000000000000000000000000000000000000600052602260045260246000fd5b60006002820490506001821680620001b057607f821691505b602082108103620001c657620001c562000168565b5b50919050565b612ef280620001dc6000396000f3fe608060405234801561001057600080fd5b506004361061010b5760003560e01c806342842e0e116100a257806395d89b411161007157806395d89b41146102ca578063a22cb465146102e8578063b88d4fde14610304578063c87b56dd14610320578063e985e9c5146103505761010b565b806342842e0e1461021e5780634f6ccce71461023a5780636352211e1461026a57806370a082311461029a5761010b565b80631249c58b116100de5780631249c58b146101aa57806318160ddd146101b457806323b872dd146101d25780632f745c59146101ee5761010b565b806301ffc9a71461011057806306fdde0314610140578063081812fc1461015e578063095ea7b31461018e575b600080fd5b61012a60048036038101906101259190611d24565b610380565b6040516101379190611d6c565b60405180910390f35b6101486103fa565b6040516101559190611e20565b60405180910390f35b61017860048036038101906101739190611e78565b61048c565b6040516101859190611ee6565b60405180910390f35b6101a860048036038101906101a39190611f2d565b610511565b005b6101b2610628565b005b6101bc61064e565b6040516101c99190611f7c565b60405180910390f35b6101ec60048036038101906101e79190611f97565b61065b565b005b61020860048036038101906102039190611f2d565b6106bb565b6040516102159190611f7c565b60405180910390f35b61023860048036038101906102339190611f97565b610760565b005b610254600480360381019061024f9190611e78565b610780565b6040516102619190611f7c565b60405180910390f35b610284600480360381019061027f9190611e78565b6107f1565b6040516102919190611ee6565b60405180910390f35b6102b460048036038101906102af9190611fea565b6108a2565b6040516102c19190611f7c565b60405180910390f35b6102d2610959565b6040516102df9190611e20565b60405180910390f35b61030260048036038101906102fd9190612043565b6109eb565b005b61031e600480360381019061031991906121b8565b610a01565b005b61033a60048036038101906103359190611e78565b610a63565b6040516103479190611e20565b60405180910390f35b61036a6004803603810190610365919061223b565b610b0a565b6040516103779190611d6c565b60405180910390f35b60007f780e9d63000000000000000000000000000000000000000000000000000000007bffffffffffffffffffffffffffffffffffffffffffffffffffffffff1916827bffffffffffffffffffffffffffffffffffffffffffffffffffffffff191614806103f357506103f282610b9e565b5b9050919050565b606060008054610409906122aa565b80601f0160208091040260200160405190810160405280929190818152602001828054610435906122aa565b80156104825780601f1061045757610100808354040283529160200191610482565b820191906000526020600020905b81548152906001019060200180831161046557829003601f168201915b5050505050905090565b600061049782610c80565b6104d6576040517f08c379a00000000000000000000000000000000000000000000000000000000081526004016104cd9061234d565b60405180910390fd5b6004600083815260200190815260200160002060009054906101000a900473ffffffffffffffffffffffffffffffffffffffff169050919050565b600061051c826107f1565b90508073ffffffffffffffffffffffffffffffffffffffff168373ffffffffffffffffffffffffffffffffffffffff160361058c576040517f08c379a0000000000000000000000000000000000000000000000000000000008152600401610583906123df565b60405180910390fd5b8073ffffffffffffffffffffffffffffffffffffffff166105ab610cec565b73ffffffffffffffffffffffffffffffffffffffff1614806105da57506105d9816105d4610cec565b610b0a565b5b610619576040517f08c379a000000000000000000000000000000000000000000000000000000000815260040161061090612471565b60405180910390fd5b6106238383610cf4565b505050565b600a600081548092919061063b906124c0565b919050555061064c33600a54610dad565b565b6000600880549050905090565b61066c610666610cec565b82610dcb565b6106ab576040517f08c379a00000000000000000000000000000000000000000000000000000000081526004016106a29061257a565b60405180910390fd5b6106b6838383610ea9565b505050565b60006106c6836108a2565b8210610707576040517f08c379a00000000000000000000000000000000000000000000000000000000081526004016106fe9061260c565b60405180910390fd5b600660008473ffffffffffffffffffffffffffffffffffffffff1673ffffffffffffffffffffffffffffffffffffffff168152602001908152602001600020600083815260200190815260200160002054905092915050565b61077b83838360405180602001604052806000815250610a01565b505050565b600061078a61064e565b82106107cb576040517f08c379a00000000000000000000000000000000000000000000000000000000081526004016107c29061269e565b60405180910390fd5b600882815481106107df576107de6126be565b5b90600052602060002001549050919050565b6000806002600084815260200190815260200160002060009054906101000a900473ffffffffffffffffffffffffffffffffffffffff169050600073ffffffffffffffffffffffffffffffffffffffff168173ffffffffffffffffffffffffffffffffffffffff1603610899576040517f08c379a00000000000000000000000000000000000000000000000000000000081526004016108909061275f565b60405180910390fd5b80915050919050565b60008073ffffffffffffffffffffffffffffffffffffffff168273ffffffffffffffffffffffffffffffffffffffff1603610912576040517f08c379a0000000000000000000000000000000000000000000000000000000008152600401610909906127f1565b60405180910390fd5b600360008373ffffffffffffffffffffffffffffffffffffffff1673ffffffffffffffffffffffffffffffffffffffff168152602001908152602001600020549050919050565b606060018054610968906122aa565b80601f0160208091040260200160405190810160405280929190818152602001828054610994906122aa565b80156109e15780601f106109b6576101008083540402835291602001916109e1565b820191906000526020600020905b8154815290600101906020018083116109c457829003601f168201915b5050505050905090565b6109fd6109f6610cec565b838361110f565b5050565b610a12610a0c610cec565b83610dcb565b610a51576040517f08c379a0000000000000000000000000000000000000000000000000000000008152600401610a489061257a565b60405180910390fd5b610a5d8484848461127b565b50505050565b6060610a6e82610c80565b610aad576040517f08c379a0000000000000000000000000000000000000000000000000000000008152600401610aa490612883565b60405180910390fd5b6000610ab76112d7565b90506000815111610ad75760405180602001604052806000815250610b02565b80610ae1846112ee565b604051602001610af29291906128df565b6040516020818303038152906040525b915050919050565b6000600560008473ffffffffffffffffffffffffffffffffffffffff1673ffffffffffffffffffffffffffffffffffffffff16815260200190815260200160002060008373ffffffffffffffffffffffffffffffffffffffff1673ffffffffffffffffffffffffffffffffffffffff16815260200190815260200160002060009054906101000a900460ff16905092915050565b60007f80ac58cd000000000000000000000000000000000000000000000000000000007bffffffffffffffffffffffffffffffffffffffffffffffffffffffff1916827bffffffffffffffffffffffffffffffffffffffffffffffffffffffff19161480610c6957507f5b5e139f000000000000000000000000000000000000000000000000000000007bffffffffffffffffffffffffffffffffffffffffffffffffffffffff1916827bffffffffffffffffffffffffffffffffffffffffffffffffffffffff1916145b80610c795750610c788261144e565b5b9050919050565b60008073ffffffffffffffffffffffffffffffffffffffff166002600084815260200190815260200160002060009054906101000a900473ffffffffffffffffffffffffffffffffffffffff1673ffffffffffffffffffffffffffffffffffffffff1614159050919050565b600033905090565b816004600083815260200190815260200160002060006101000a81548173ffffffffffffffffffffffffffffffffffffffff021916908373ffffffffffffffffffffffffffffffffffffffff160217905550808273ffffffffffffffffffffffffffffffffffffffff16610d67836107f1565b73ffffffffffffffffffffffffffffffffffffffff167f8c5be1e5ebec7d5bd14f71427d1e84f3dd0314c0f7b2291e5b200ac8c7c3b92560405160405180910390a45050565b610dc78282604051806020016040528060008152506114b8565b5050565b6000610dd682610c80565b610e15576040517f08c379a0000000000000000000000000000000000000000000000000000000008152600401610e0c90612975565b60405180910390fd5b6000610e20836107f1565b90508073ffffffffffffffffffffffffffffffffffffffff168473ffffffffffffffffffffffffffffffffffffffff161480610e8f57508373ffffffffffffffffffffffffffffffffffffffff16610e778461048c565b73ffffffffffffffffffffffffffffffffffffffff16145b80610ea05750610e9f8185610b0a565b5b91505092915050565b8273ffffffffffffffffffffffffffffffffffffffff16610ec9826107f1565b73ffffffffffffffffffffffffffffffffffffffff1614610f1f576040517f08c379a0000000000000000000000000000000000000000000000000000000008152600401610f1690612a07565b60405180910390fd5b600073ffffffffffffffffffffffffffffffffffffffff168273ffffffffffffffffffffffffffffffffffffffff1603610f8e576040517f08c379a0000000000000000000000000000000000000000000000000000000008152600401610f8590612a99565b60405180910390fd5b610f99838383611513565b610fa4600082610cf4565b6001600360008573ffffffffffffffffffffffffffffffffffffffff1673ffffffffffffffffffffffffffffffffffffffff1681526020019081526020016000206000828254610ff49190612ab9565b925050819055506001600360008473ffffffffffffffffffffffffffffffffffffffff1673ffffffffffffffffffffffffffffffffffffffff168152602001908152602001600020600082825461104b9190612aed565b92505081905550816002600083815260200190815260200160002060006101000a81548173ffffffffffffffffffffffffffffffffffffffff021916908373ffffffffffffffffffffffffffffffffffffffff160217905550808273ffffffffffffffffffffffffffffffffffffffff168473ffffffffffffffffffffffffffffffffffffffff167fddf252ad1be2c89b69c2b068fc378daa952ba7f163c4a11628f55a4df523b3ef60405160405180910390a461110a838383611625565b505050565b8173ffffffffffffffffffffffffffffffffffffffff168373ffffffffffffffffffffffffffffffffffffffff160361117d576040517f08c379a000000000000000000000000000000000000000000000000000000000815260040161117490612b8f565b60405180910390fd5b80600560008573ffffffffffffffffffffffffffffffffffffffff1673ffffffffffffffffffffffffffffffffffffffff16815260200190815260200160002060008473ffffffffffffffffffffffffffffffffffffffff1673ffffffffffffffffffffffffffffffffffffffff16815260200190815260200160002060006101000a81548160ff0219169083151502179055508173ffffffffffffffffffffffffffffffffffffffff168373ffffffffffffffffffffffffffffffffffffffff167f17307eab39ab6107e8899845ad3d59bd9653f200f220920489ca2b5937696c318360405161126e9190611d6c565b60405180910390a3505050565b611286848484610ea9565b6112928484848461162a565b6112d1576040517f08c379a00000000000000000000000000000000000000000000000000000000081526004016112c890612c21565b60405180910390fd5b50505050565b606060405180602001604052806000815250905090565b606060008203611335576040518060400160405280600181526020017f30000000000000000000000000000000000000000000000000000000000000008152509050611449565b600082905060005b60008214611367578080611350906124c0565b915050600a826113609190612c70565b915061133d565b60008167ffffffffffffffff8111156113835761138261208d565b5b6040519080825280601f01601f1916602001820160405280156113b55781602001600182028036833780820191505090505b5090505b60008514611442576001826113ce9190612ab9565b9150600a856113dd9190612ca1565b60306113e99190612aed565b60f81b8183815181106113ff576113fe6126be565b5b60200101907effffffffffffffffffffffffffffffffffffffffffffffffffffffffffffff1916908160001a905350600a8561143b9190612c70565b94506113b9565b8093505050505b919050565b60007f01ffc9a7000000000000000000000000000000000000000000000000000000007bffffffffffffffffffffffffffffffffffffffffffffffffffffffff1916827bffffffffffffffffffffffffffffffffffffffffffffffffffffffff1916149050919050565b6114c283836117b1565b6114cf600084848461162a565b61150e576040517f08c379a000000000000000000000000000000000000000000000000000000000815260040161150590612c21565b60405180910390fd5b505050565b61151e83838361198a565b600073ffffffffffffffffffffffffffffffffffffffff168373ffffffffffffffffffffffffffffffffffffffff16036115605761155b8161198f565b61159f565b8173ffffffffffffffffffffffffffffffffffffffff168373ffffffffffffffffffffffffffffffffffffffff161461159e5761159d83826119d8565b5b5b600073ffffffffffffffffffffffffffffffffffffffff168273ffffffffffffffffffffffffffffffffffffffff16036115e1576115dc81611b45565b611620565b8273ffffffffffffffffffffffffffffffffffffffff168273ffffffffffffffffffffffffffffffffffffffff161461161f5761161e8282611c16565b5b5b505050565b505050565b600061164b8473ffffffffffffffffffffffffffffffffffffffff16611c95565b156117a4578373ffffffffffffffffffffffffffffffffffffffff1663150b7a02611674610cec565b8786866040518563ffffffff1660e01b81526004016116969493929190612d27565b6020604051808303816000875af19250505080156116d257506040513d601f19601f820116820180604052508101906116cf9190612d88565b60015b611754573d8060008114611702576040519150601f19603f3d011682016040523d82523d6000602084013e611707565b606091505b50600081510361174c576040517f08c379a000000000000000000000000000000000000000000000000000000000815260040161174390612c21565b60405180910390fd5b805181602001fd5b63150b7a0260e01b7bffffffffffffffffffffffffffffffffffffffffffffffffffffffff1916817bffffffffffffffffffffffffffffffffffffffffffffffffffffffff1916149150506117a9565b600190505b949350505050565b600073ffffffffffffffffffffffffffffffffffffffff168273ffffffffffffffffffffffffffffffffffffffff1603611820576040517f08c379a000000000000000000000000000000000000000000000000000000000815260040161181790612e01565b60405180910390fd5b61182981610c80565b15611869576040517f08c379a000000000000000000000000000000000000000000000000000000000815260040161186090612e6d565b60405180910390fd5b61187560008383611513565b6001600360008473ffffffffffffffffffffffffffffffffffffffff1673ffffffffffffffffffffffffffffffffffffffff16815260200190815260200160002060008282546118c59190612aed565b92505081905550816002600083815260200190815260200160002060006101000a81548173ffffffffffffffffffffffffffffffffffffffff021916908373ffffffffffffffffffffffffffffffffffffffff160217905550808273ffffffffffffffffffffffffffffffffffffffff16600073ffffffffffffffffffffffffffffffffffffffff167fddf252ad1be2c89b69c2b068fc378daa952ba7f163c4a11628f55a4df523b3ef60405160405180910390a461198660008383611625565b5050565b505050565b6008805490506009600083815260200190815260200160002081905550600881908060018154018082558091505060019003906000526020600020016000909190919091505550565b600060016119e5846108a2565b6119ef9190612ab9565b9050600060076000848152602001908152602001600020549050818114611ad4576000600660008673ffffffffffffffffffffffffffffffffffffffff1673ffffffffffffffffffffffffffffffffffffffff168152602001908152602001600020600084815260200190815260200160002054905080600660008773ffffffffffffffffffffffffffffffffffffffff1673ffffffffffffffffffffffffffffffffffffffff168152602001908152602001600020600084815260200190815260200160002081905550816007600083815260200190815260200160002081905550505b6007600084815260200190815260200160002060009055600660008573ffffffffffffffffffffffffffffffffffffffff1673ffffffffffffffffffffffffffffffffffffffff16815260200190815260200160002060008381526020019081526020016000206000905550505050565b60006001600880549050611b599190612ab9565b9050600060096000848152602001908152602001600020549050600060088381548110611b8957611b886126be565b5b906000526020600020015490508060088381548110611bab57611baa6126be565b5b906000526020600020018190555081600960008381526020019081526020016000208190555060096000858152602001908152602001600020600090556008805480611bfa57611bf9612e8d565b5b6001900381819060005260206000200160009055905550505050565b6000611c21836108a2565b905081600660008573ffffffffffffffffffffffffffffffffffffffff1673ffffffffffffffffffffffffffffffffffffffff168152602001908152602001600020600083815260200190815260200160002081905550806007600084815260200190815260200160002081905550505050565b6000808273ffffffffffffffffffffffffffffffffffffffff163b119050919050565b6000604051905090565b600080fd5b600080fd5b60007fffffffff0000000000000000000000000000000000000000000000000000000082169050919050565b611d0181611ccc565b8114611d0c57600080fd5b50565b600081359050611d1e81611cf8565b92915050565b600060208284031215611d3a57611d39611cc2565b5b6000611d4884828501611d0f565b91505092915050565b60008115159050919050565b611d6681611d51565b82525050565b6000602082019050611d816000830184611d5d565b92915050565b600081519050919050565b600082825260208201905092915050565b60005b83811015611dc1578082015181840152602081019050611da6565b83811115611dd0576000848401525b50505050565b6000601f19601f8301169050919050565b6000611df282611d87565b611dfc8185611d92565b9350611e0c818560208601611da3565b611e1581611dd6565b840191505092915050565b60006020820190508181036000830152611e3a8184611de7565b905092915050565b6000819050919050565b611e5581611e42565b8114611e6057600080fd5b50565b600081359050611e7281611e4c565b92915050565b600060208284031215611e8e57611e8d611cc2565b5b6000611e9c84828501611e63565b91505092915050565b600073ffffffffffffffffffffffffffffffffffffffff82169050919050565b6000611ed082611ea5565b9050919050565b611ee081611ec5565b82525050565b6000602082019050611efb6000830184611ed7565b92915050565b611f0a81611ec5565b8114611f1557600080fd5b50565b600081359050611f2781611f01565b92915050565b60008060408385031215611f4457611f43611cc2565b5b6000611f5285828601611f18565b9250506020611f6385828601611e63565b9150509250929050565b611f7681611e42565b82525050565b6000602082019050611f916000830184611f6d565b92915050565b600080600060608486031215611fb057611faf611cc2565b5b6000611fbe86828701611f18565b9350506020611fcf86828701611f18565b9250506040611fe086828701611e63565b9150509250925092565b60006020828403121561200057611fff611cc2565b5b600061200e84828501611f18565b91505092915050565b61202081611d51565b811461202b57600080fd5b50565b60008135905061203d81612017565b92915050565b6000806040838503121561205a57612059611cc2565b5b600061206885828601611f18565b92505060206120798582860161202e565b9150509250929050565b600080fd5b600080fd5b7f4e487b7100000000000000000000000000000000000000000000000000000000600052604160045260246000fd5b6120c582611dd6565b810181811067ffffffffffffffff821117156120e4576120e361208d565b5b80604052505050565b60006120f7611cb8565b905061210382826120bc565b919050565b600067ffffffffffffffff8211156121235761212261208d565b5b61212c82611dd6565b9050602081019050919050565b82818337600083830152505050565b600061215b61215684612108565b6120ed565b90508281526020810184848401111561217757612176612088565b5b612182848285612139565b509392505050565b600082601f83011261219f5761219e612083565b5b81356121af848260208601612148565b91505092915050565b600080600080608085870312156121d2576121d1611cc2565b5b60006121e087828801611f18565b94505060206121f187828801611f18565b935050604061220287828801611e63565b925050606085013567ffffffffffffffff81111561222357612222611cc7565b5b61222f8782880161218a565b91505092959194509250565b6000806040838503121561225257612251611cc2565b5b600061226085828601611f18565b925050602061227185828601611f18565b9150509250929050565b7f4e487b7100000000000000000000000000000000000000000000000000000000600052602260045260246000fd5b600060028204905060018216806122c257607f821691505b6020821081036122d5576122d461227b565b5b50919050565b7f4552433732313a20617070726f76656420717565727920666f72206e6f6e657860008201527f697374656e7420746f6b656e0000000000000000000000000000000000000000602082015250565b6000612337602c83611d92565b9150612342826122db565b604082019050919050565b600060208201905081810360008301526123668161232a565b9050919050565b7f4552433732313a20617070726f76616c20746f2063757272656e74206f776e6560008201527f7200000000000000000000000000000000000000000000000000000000000000602082015250565b60006123c9602183611d92565b91506123d48261236d565b604082019050919050565b600060208201905081810360008301526123f8816123bc565b9050919050565b7f4552433732313a20617070726f76652063616c6c6572206973206e6f74206f7760008201527f6e6572206e6f7220617070726f76656420666f7220616c6c0000000000000000602082015250565b600061245b603883611d92565b9150612466826123ff565b604082019050919050565b6000602082019050818103600083015261248a8161244e565b9050919050565b7f4e487b7100000000000000000000000000000000000000000000000000000000600052601160045260246000fd5b60006124cb82611e42565b91507fffffffffffffffffffffffffffffffffffffffffffffffffffffffffffffffff82036124fd576124fc612491565b5b600182019050919050565b7f4552433732313a207472616e736665722063616c6c6572206973206e6f74206f60008201527f776e6572206e6f7220617070726f766564000000000000000000000000000000602082015250565b6000612564603183611d92565b915061256f82612508565b604082019050919050565b6000602082019050818103600083015261259381612557565b9050919050565b7f455243373231456e756d657261626c653a206f776e657220696e646578206f7560008201527f74206f6620626f756e6473000000000000000000000000000000000000000000602082015250565b60006125f6602b83611d92565b91506126018261259a565b604082019050919050565b60006020820190508181036000830152612625816125e9565b9050919050565b7f455243373231456e756d657261626c653a20676c6f62616c20696e646578206f60008201527f7574206f6620626f756e64730000000000000000000000000000000000000000602082015250565b6000612688602c83611d92565b91506126938261262c565b604082019050919050565b600060208201905081810360008301526126b78161267b565b9050919050565b7f4e487b7100000000000000000000000000000000000000000000000000000000600052603260045260246000fd5b7f4552433732313a206f776e657220717565727920666f72206e6f6e657869737460008201527f656e7420746f6b656e0000000000000000000000000000000000000000000000602082015250565b6000612749602983611d92565b9150612754826126ed565b604082019050919050565b600060208201905081810360008301526127788161273c565b9050919050565b7f4552433732313a2062616c616e636520717565727920666f7220746865207a6560008201527f726f206164647265737300000000000000000000000000000000000000000000602082015250565b60006127db602a83611d92565b91506127e68261277f565b604082019050919050565b6000602082019050818103600083015261280a816127ce565b9050919050565b7f4552433732314d657461646174613a2055524920717565727920666f72206e6f60008201527f6e6578697374656e7420746f6b656e0000000000000000000000000000000000602082015250565b600061286d602f83611d92565b915061287882612811565b604082019050919050565b6000602082019050818103600083015261289c81612860565b9050919050565b600081905092915050565b60006128b982611d87565b6128c381856128a3565b93506128d3818560208601611da3565b80840191505092915050565b60006128eb82856128ae565b91506128f782846128ae565b91508190509392505050565b7f4552433732313a206f70657261746f7220717565727920666f72206e6f6e657860008201527f697374656e7420746f6b656e0000000000000000000000000000000000000000602082015250565b600061295f602c83611d92565b915061296a82612903565b604082019050919050565b6000602082019050818103600083015261298e81612952565b9050919050565b7f4552433732313a207472616e736665722066726f6d20696e636f72726563742060008201527f6f776e6572000000000000000000000000000000000000000000000000000000602082015250565b60006129f1602583611d92565b91506129fc82612995565b604082019050919050565b60006020820190508181036000830152612a20816129e4565b9050919050565b7f4552433732313a207472616e7366657220746f20746865207a65726f2061646460008201527f7265737300000000000000000000000000000000000000000000000000000000602082015250565b6000612a83602483611d92565b9150612a8e82612a27565b604082019050919050565b60006020820190508181036000830152612ab281612a76565b9050919050565b6000612ac482611e42565b9150612acf83611e42565b925082821015612ae257612ae1612491565b5b828203905092915050565b6000612af882611e42565b9150612b0383611e42565b9250827fffffffffffffffffffffffffffffffffffffffffffffffffffffffffffffffff03821115612b3857612b37612491565b5b828201905092915050565b7f4552433732313a20617070726f766520746f2063616c6c657200000000000000600082015250565b6000612b79601983611d92565b9150612b8482612b43565b602082019050919050565b60006020820190508181036000830152612ba881612b6c565b9050919050565b7f4552433732313a207472616e7366657220746f206e6f6e20455243373231526560008201527f63656976657220696d706c656d656e7465720000000000000000000000000000602082015250565b6000612c0b603283611d92565b9150612c1682612baf565b604082019050919050565b60006020820190508181036000830152612c3a81612bfe565b9050919050565b7f4e487b7100000000000000000000000000000000000000000000000000000000600052601260045260246000fd5b6000612c7b82611e42565b9150612c8683611e42565b925082612c9657612c95612c41565b5b828204905092915050565b6000612cac82611e42565b9150612cb783611e42565b925082612cc757612cc6612c41565b5b828206905092915050565b600081519050919050565b600082825260208201905092915050565b6000612cf982612cd2565b612d038185612cdd565b9350612d13818560208601611da3565b612d1c81611dd6565b840191505092915050565b6000608082019050612d3c6000830187611ed7565b612d496020830186611ed7565b612d566040830185611f6d565b8181036060830152612d688184612cee565b905095945050505050565b600081519050612d8281611cf8565b92915050565b600060208284031215612d9e57612d9d611cc2565b5b6000612dac84828501612d73565b91505092915050565b7f4552433732313a206d696e7420746f20746865207a65726f2061646472657373600082015250565b6000612deb602083611d92565b9150612df682612db5565b602082019050919050565b60006020820190508181036000830152612e1a81612dde565b9050919050565b7f4552433732313a20746f6b656e20616c7265616479206d696e74656400000000600082015250565b6000612e57601c83611d92565b9150612e6282612e21565b602082019050919050565b60006020820190508181036000830152612e8681612e4a565b9050919050565b7f4e487b7100000000000000000000000000000000000000000000000000000000600052603160045260246000fdfea2646970667358221220cfdb6645cd3e39fa7968d466252c7e1f62ff90c3d905b0ced944563158392a2f64736f6c634300080d0033",
  "immutableReferences": {},
  "source": "// SPDX-License-Identifier: MIT\r\n\r\npragma solidity ^0.8.0;\r\n\r\nimport \"@openzeppelin/contracts/token/ERC721/extensions/ERC721Enumerable.sol\";\r\nimport \"@openzeppelin/contracts/access/Ownable.sol\";\r\n\r\ncontract PunkNFT is ERC721Enumerable {\r\n\r\n    uint256 tokenId;\r\n\r\n    constructor() ERC721(\"PunkHouse\", \"PH\"){\r\n\r\n    }\r\n\r\n    function mint() public {\r\n        tokenId++;\r\n        _safeMint(msg.sender, tokenId);\r\n    }\r\n\r\n}",
  "sourcePath": "C:/Users/Riki/Desktop/Solidity + React/DaoContract/contracts/PunkNFT.sol",
  "compiler": {
    "name": "solc",
    "version": "0.8.13+commit.abaa5c0e.Emscripten.clang"
  },
  "schemaVersion": "3.3.4",
  "updatedAt": "2022-04-08T20:43:36.944Z",
  "networkType": "ethereum",
  "devdoc": {
    "kind": "dev",
    "methods": {
      "approve(address,uint256)": {
        "details": "See {IERC721-approve}."
      },
      "balanceOf(address)": {
        "details": "See {IERC721-balanceOf}."
      },
      "getApproved(uint256)": {
        "details": "See {IERC721-getApproved}."
      },
      "isApprovedForAll(address,address)": {
        "details": "See {IERC721-isApprovedForAll}."
      },
      "name()": {
        "details": "See {IERC721Metadata-name}."
      },
      "ownerOf(uint256)": {
        "details": "See {IERC721-ownerOf}."
      },
      "safeTransferFrom(address,address,uint256)": {
        "details": "See {IERC721-safeTransferFrom}."
      },
      "safeTransferFrom(address,address,uint256,bytes)": {
        "details": "See {IERC721-safeTransferFrom}."
      },
      "setApprovalForAll(address,bool)": {
        "details": "See {IERC721-setApprovalForAll}."
      },
      "supportsInterface(bytes4)": {
        "details": "See {IERC165-supportsInterface}."
      },
      "symbol()": {
        "details": "See {IERC721Metadata-symbol}."
      },
      "tokenByIndex(uint256)": {
        "details": "See {IERC721Enumerable-tokenByIndex}."
      },
      "tokenOfOwnerByIndex(address,uint256)": {
        "details": "See {IERC721Enumerable-tokenOfOwnerByIndex}."
      },
      "tokenURI(uint256)": {
        "details": "See {IERC721Metadata-tokenURI}."
      },
      "totalSupply()": {
        "details": "See {IERC721Enumerable-totalSupply}."
      },
      "transferFrom(address,address,uint256)": {
        "details": "See {IERC721-transferFrom}."
      }
    },
    "version": 1
  },
  "userdoc": {
    "kind": "user",
    "methods": {},
    "version": 1
  }
}